{
  "_format": "hh-sol-artifact-1",
  "contractName": "DIDRegistry",
  "sourceName": "contracts/DIDRegistry.sol",
  "abi": [
    {
      "anonymous": false,
      "inputs": [
        {
          "indexed": true,
          "internalType": "address",
          "name": "user",
          "type": "address"
        },
        {
          "indexed": false,
          "internalType": "string",
          "name": "did",
          "type": "string"
        }
      ],
      "name": "DIDRegistered",
      "type": "event"
    },
    {
      "anonymous": false,
      "inputs": [
        {
          "indexed": true,
          "internalType": "address",
          "name": "issuer",
          "type": "address"
        },
        {
          "indexed": true,
          "internalType": "address",
          "name": "holder",
          "type": "address"
        },
        {
          "indexed": false,
          "internalType": "string",
          "name": "credentialHash",
          "type": "string"
        }
      ],
      "name": "VCIssued",
      "type": "event"
    },
    {
      "anonymous": false,
      "inputs": [
        {
          "indexed": true,
          "internalType": "address",
          "name": "holder",
          "type": "address"
        },
        {
          "indexed": false,
          "internalType": "string",
          "name": "credentialHash",
          "type": "string"
        }
      ],
      "name": "VCRevoked",
      "type": "event"
    },
    {
      "inputs": [
        {
          "internalType": "address",
          "name": "user",
          "type": "address"
        }
      ],
      "name": "getDID",
      "outputs": [
        {
          "internalType": "string",
          "name": "",
          "type": "string"
        }
      ],
      "stateMutability": "view",
      "type": "function"
    },
    {
      "inputs": [
        {
          "internalType": "address",
          "name": "holder",
          "type": "address"
        },
        {
          "internalType": "string",
          "name": "credentialHash",
          "type": "string"
        }
      ],
      "name": "issueVC",
      "outputs": [],
      "stateMutability": "nonpayable",
      "type": "function"
    },
    {
      "inputs": [
        {
          "internalType": "address",
          "name": "user",
          "type": "address"
        },
        {
          "internalType": "bytes",
          "name": "publicKey",
          "type": "bytes"
        }
      ],
      "name": "registerDID",
      "outputs": [],
      "stateMutability": "nonpayable",
      "type": "function"
    },
    {
      "inputs": [
        {
          "internalType": "address",
          "name": "holder",
          "type": "address"
        },
        {
          "internalType": "string",
          "name": "credentialHash",
          "type": "string"
        }
      ],
      "name": "revokeVC",
      "outputs": [],
      "stateMutability": "nonpayable",
      "type": "function"
    },
    {
      "inputs": [
        {
          "internalType": "address",
          "name": "holder",
          "type": "address"
        },
        {
          "internalType": "string",
          "name": "credentialHash",
          "type": "string"
        }
      ],
      "name": "verifyVC",
      "outputs": [
        {
          "internalType": "bool",
          "name": "",
          "type": "bool"
        }
      ],
      "stateMutability": "view",
      "type": "function"
    }
  ],
  "bytecode": "0x6080604052348015600f57600080fd5b506119968061001f6000396000f3fe608060405234801561001057600080fd5b50600436106100575760003560e01c80630493def61461005c5780631bc0d5291461007857806331d418c6146100945780637141d0be146100b0578063f64e30b0146100e0575b600080fd5b61007660048036038101906100719190610f4c565b610110565b005b610092600480360381019061008d9190611002565b61028e565b005b6100ae60048036038101906100a99190611002565b610588565b005b6100ca60048036038101906100c59190611002565b6108d0565b6040516100d7919061107d565b60405180910390f35b6100fa60048036038101906100f59190611098565b6109fd565b6040516101079190611155565b60405180910390f35b60008060008573ffffffffffffffffffffffffffffffffffffffff1673ffffffffffffffffffffffffffffffffffffffff168152602001908152602001600020805461015b906111a6565b90501461019d576040517f08c379a000000000000000000000000000000000000000000000000000000000815260040161019490611223565b60405180910390fd5b60006101ec83838080601f016020809104026020016040519081016040528093929190818152602001838380828437600081840152601f19601f82011690508083019250505050505050610b5a565b9050806000808673ffffffffffffffffffffffffffffffffffffffff1673ffffffffffffffffffffffffffffffffffffffff16815260200190815260200160002090816102399190611428565b508373ffffffffffffffffffffffffffffffffffffffff167fbfab59a7af78dfc896c3096604749fcee2db2e850297de42de5e6369f54bd3fb826040516102809190611155565b60405180910390a250505050565b60008060003373ffffffffffffffffffffffffffffffffffffffff1673ffffffffffffffffffffffffffffffffffffffff16815260200190815260200160002080546102d9906111a6565b90501161031b576040517f08c379a000000000000000000000000000000000000000000000000000000000815260040161031290611546565b60405180910390fd5b6000600160008573ffffffffffffffffffffffffffffffffffffffff1673ffffffffffffffffffffffffffffffffffffffff16815260200190815260200160002090506000805b82805490508110156105405784846040516020016103819291906115a5565b604051602081830303815290604052805190602001208382815481106103aa576103a96115be565b5b90600052602060002090600402016002016040516020016103cb9190611670565b6040516020818303038152906040528051906020012014801561045d57503373ffffffffffffffffffffffffffffffffffffffff16838281548110610413576104126115be565b5b906000526020600020906004020160000160009054906101000a900473ffffffffffffffffffffffffffffffffffffffff1673ffffffffffffffffffffffffffffffffffffffff16145b80156104985750828181548110610477576104766115be565b5b906000526020600020906004020160030160009054906101000a900460ff16155b156105335760018382815481106104b2576104b16115be565b5b906000526020600020906004020160030160006101000a81548160ff021916908315150217905550600191508573ffffffffffffffffffffffffffffffffffffffff167f775dc1191cfff60c40587e740e04680b7b556b0ebe5fae7d85ec8beb6daa70ad86866040516105269291906116b4565b60405180910390a2610540565b8080600101915050610362565b5080610581576040517f08c379a000000000000000000000000000000000000000000000000000000000815260040161057890611724565b60405180910390fd5b5050505050565b60008060003373ffffffffffffffffffffffffffffffffffffffff1673ffffffffffffffffffffffffffffffffffffffff16815260200190815260200160002080546105d3906111a6565b905011610615576040517f08c379a000000000000000000000000000000000000000000000000000000000815260040161060c90611546565b60405180910390fd5b60008060008573ffffffffffffffffffffffffffffffffffffffff1673ffffffffffffffffffffffffffffffffffffffff1681526020019081526020016000208054610660906111a6565b9050116106a2576040517f08c379a000000000000000000000000000000000000000000000000000000000815260040161069990611790565b60405180910390fd5b600160008473ffffffffffffffffffffffffffffffffffffffff1673ffffffffffffffffffffffffffffffffffffffff16815260200190815260200160002060405180608001604052803373ffffffffffffffffffffffffffffffffffffffff1681526020018573ffffffffffffffffffffffffffffffffffffffff16815260200184848080601f016020809104026020016040519081016040528093929190818152602001838380828437600081840152601f19601f82011690508083019250505050505050815260200160001515815250908060018154018082558091505060019003906000526020600020906004020160009091909190915060008201518160000160006101000a81548173ffffffffffffffffffffffffffffffffffffffff021916908373ffffffffffffffffffffffffffffffffffffffff16021790555060208201518160010160006101000a81548173ffffffffffffffffffffffffffffffffffffffff021916908373ffffffffffffffffffffffffffffffffffffffff16021790555060408201518160020190816108419190611428565b5060608201518160030160006101000a81548160ff02191690831515021790555050508273ffffffffffffffffffffffffffffffffffffffff163373ffffffffffffffffffffffffffffffffffffffff167f41bae96aaec1384a87eb4b32aca17aee9e78427155e929c53ab7468f3df9535184846040516108c39291906116b4565b60405180910390a3505050565b600080600160008673ffffffffffffffffffffffffffffffffffffffff1673ffffffffffffffffffffffffffffffffffffffff168152602001908152602001600020905060005b81805490508110156109ef5784846040516020016109369291906115a5565b6040516020818303038152906040528051906020012082828154811061095f5761095e6115be565b5b90600052602060002090600402016002016040516020016109809190611670565b604051602081830303815290604052805190602001201480156109d257508181815481106109b1576109b06115be565b5b906000526020600020906004020160030160009054906101000a900460ff16155b156109e2576001925050506109f6565b8080600101915050610917565b5060009150505b9392505050565b606060008060008473ffffffffffffffffffffffffffffffffffffffff1673ffffffffffffffffffffffffffffffffffffffff1681526020019081526020016000208054610a4a906111a6565b905011610a8c576040517f08c379a0000000000000000000000000000000000000000000000000000000008152600401610a83906117fc565b60405180910390fd5b6000808373ffffffffffffffffffffffffffffffffffffffff1673ffffffffffffffffffffffffffffffffffffffff1681526020019081526020016000208054610ad5906111a6565b80601f0160208091040260200160405190810160405280929190818152602001828054610b01906111a6565b8015610b4e5780601f10610b2357610100808354040283529160200191610b4e565b820191906000526020600020905b815481529060010190602001808311610b3157829003601f168201915b50505050509050919050565b6060610b6582610b8b565b604051602001610b759190611899565b6040516020818303038152906040529050919050565b606060006040518060400160405280601081526020017f30313233343536373839616263646566000000000000000000000000000000008152509050600060028451610bd791906118ea565b6002610be3919061192c565b67ffffffffffffffff811115610bfc57610bfb611243565b5b6040519080825280601f01601f191660200182016040528015610c2e5781602001600182028036833780820191505090505b5090507f300000000000000000000000000000000000000000000000000000000000000081600081518110610c6657610c656115be565b5b60200101907effffffffffffffffffffffffffffffffffffffffffffffffffffffffffffff1916908160001a9053507f780000000000000000000000000000000000000000000000000000000000000081600181518110610cca57610cc96115be565b5b60200101907effffffffffffffffffffffffffffffffffffffffffffffffffffffffffffff1916908160001a90535060005b8451811015610e7457826004868381518110610d1b57610d1a6115be565b5b602001015160f81c60f81b7effffffffffffffffffffffffffffffffffffffffffffffffffffffffffffff1916901c60f81c60ff1681518110610d6157610d606115be565b5b602001015160f81c60f81b82600283610d7a91906118ea565b6002610d86919061192c565b81518110610d9757610d966115be565b5b60200101907effffffffffffffffffffffffffffffffffffffffffffffffffffffffffffff1916908160001a90535082600f60f81b868381518110610ddf57610dde6115be565b5b602001015160f81c60f81b1660f81c60ff1681518110610e0257610e016115be565b5b602001015160f81c60f81b82600283610e1b91906118ea565b6003610e27919061192c565b81518110610e3857610e376115be565b5b60200101907effffffffffffffffffffffffffffffffffffffffffffffffffffffffffffff1916908160001a9053508080600101915050610cfc565b508092505050919050565b600080fd5b600080fd5b600073ffffffffffffffffffffffffffffffffffffffff82169050919050565b6000610eb482610e89565b9050919050565b610ec481610ea9565b8114610ecf57600080fd5b50565b600081359050610ee181610ebb565b92915050565b600080fd5b600080fd5b600080fd5b60008083601f840112610f0c57610f0b610ee7565b5b8235905067ffffffffffffffff811115610f2957610f28610eec565b5b602083019150836001820283011115610f4557610f44610ef1565b5b9250929050565b600080600060408486031215610f6557610f64610e7f565b5b6000610f7386828701610ed2565b935050602084013567ffffffffffffffff811115610f9457610f93610e84565b5b610fa086828701610ef6565b92509250509250925092565b60008083601f840112610fc257610fc1610ee7565b5b8235905067ffffffffffffffff811115610fdf57610fde610eec565b5b602083019150836001820283011115610ffb57610ffa610ef1565b5b9250929050565b60008060006040848603121561101b5761101a610e7f565b5b600061102986828701610ed2565b935050602084013567ffffffffffffffff81111561104a57611049610e84565b5b61105686828701610fac565b92509250509250925092565b60008115159050919050565b61107781611062565b82525050565b6000602082019050611092600083018461106e565b92915050565b6000602082840312156110ae576110ad610e7f565b5b60006110bc84828501610ed2565b91505092915050565b600081519050919050565b600082825260208201905092915050565b60005b838110156110ff5780820151818401526020810190506110e4565b60008484015250505050565b6000601f19601f8301169050919050565b6000611127826110c5565b61113181856110d0565b93506111418185602086016110e1565b61114a8161110b565b840191505092915050565b6000602082019050818103600083015261116f818461111c565b905092915050565b7f4e487b7100000000000000000000000000000000000000000000000000000000600052602260045260246000fd5b600060028204905060018216806111be57607f821691505b6020821081036111d1576111d0611177565b5b50919050565b7f44494420616c7265616479207265676973746572656400000000000000000000600082015250565b600061120d6016836110d0565b9150611218826111d7565b602082019050919050565b6000602082019050818103600083015261123c81611200565b9050919050565b7f4e487b7100000000000000000000000000000000000000000000000000000000600052604160045260246000fd5b60008190508160005260206000209050919050565b60006020601f8301049050919050565b600082821b905092915050565b6000600883026112d47fffffffffffffffffffffffffffffffffffffffffffffffffffffffffffffffff82611297565b6112de8683611297565b95508019841693508086168417925050509392505050565b6000819050919050565b6000819050919050565b600061132561132061131b846112f6565b611300565b6112f6565b9050919050565b6000819050919050565b61133f8361130a565b61135361134b8261132c565b8484546112a4565b825550505050565b600090565b61136861135b565b611373818484611336565b505050565b5b818110156113975761138c600082611360565b600181019050611379565b5050565b601f8211156113dc576113ad81611272565b6113b684611287565b810160208510156113c5578190505b6113d96113d185611287565b830182611378565b50505b505050565b600082821c905092915050565b60006113ff600019846008026113e1565b1980831691505092915050565b600061141883836113ee565b9150826002028217905092915050565b611431826110c5565b67ffffffffffffffff81111561144a57611449611243565b5b61145482546111a6565b61145f82828561139b565b600060209050601f8311600181146114925760008415611480578287015190505b61148a858261140c565b8655506114f2565b601f1984166114a086611272565b60005b828110156114c8578489015182556001820191506020850194506020810190506114a3565b868310156114e557848901516114e1601f8916826113ee565b8355505b6001600288020188555050505b505050505050565b7f49737375657220444944206e6f74207265676973746572656400000000000000600082015250565b60006115306019836110d0565b915061153b826114fa565b602082019050919050565b6000602082019050818103600083015261155f81611523565b9050919050565b600081905092915050565b82818337600083830152505050565b600061158c8385611566565b9350611599838584611571565b82840190509392505050565b60006115b2828486611580565b91508190509392505050565b7f4e487b7100000000000000000000000000000000000000000000000000000000600052603260045260246000fd5b600081546115fa816111a6565b6116048186611566565b9450600182166000811461161f576001811461163457611667565b60ff1983168652811515820286019350611667565b61163d85611272565b60005b8381101561165f57815481890152600182019150602081019050611640565b838801955050505b50505092915050565b600061167c82846115ed565b915081905092915050565b600061169383856110d0565b93506116a0838584611571565b6116a98361110b565b840190509392505050565b600060208201905081810360008301526116cf818486611687565b90509392505050565b7f5643206e6f7420666f756e64206f7220616c7265616479207265766f6b656400600082015250565b600061170e601f836110d0565b9150611719826116d8565b602082019050919050565b6000602082019050818103600083015261173d81611701565b9050919050565b7f486f6c64657220444944206e6f74207265676973746572656400000000000000600082015250565b600061177a6019836110d0565b915061178582611744565b602082019050919050565b600060208201905081810360008301526117a98161176d565b9050919050565b7f444944206e6f7420666f756e6400000000000000000000000000000000000000600082015250565b60006117e6600d836110d0565b91506117f1826117b0565b602082019050919050565b60006020820190508181036000830152611815816117d9565b9050919050565b7f6469643a6b65793a000000000000000000000000000000000000000000000000600082015250565b6000611852600883611566565b915061185d8261181c565b600882019050919050565b6000611873826110c5565b61187d8185611566565b935061188d8185602086016110e1565b80840191505092915050565b60006118a482611845565b91506118b08284611868565b915081905092915050565b7f4e487b7100000000000000000000000000000000000000000000000000000000600052601160045260246000fd5b60006118f5826112f6565b9150611900836112f6565b925082820261190e816112f6565b91508282048414831517611925576119246118bb565b5b5092915050565b6000611937826112f6565b9150611942836112f6565b925082820190508082111561195a576119596118bb565b5b9291505056fea26469706673582212208abfbf191ddcc498d7511fd1007c8e1a23c25711b790a500fa135c0017452efa64736f6c634300081b0033",
  "linkReferences": {},
  "deployedLinkReferences": {}
}