{
  "_format": "hh-sol-artifact-1",
  "contractName": "DIDRegistry",
  "sourceName": "contracts/DIDRegistry.sol",
  "abi": [
    {
      "anonymous": false,
      "inputs": [
        {
          "indexed": true,
          "internalType": "address",
          "name": "user",
          "type": "address"
        },
        {
          "indexed": false,
          "internalType": "string",
          "name": "did",
          "type": "string"
        }
      ],
      "name": "DIDRegistered",
      "type": "event"
    },
    {
      "anonymous": false,
      "inputs": [
        {
          "indexed": true,
          "internalType": "address",
          "name": "issuer",
          "type": "address"
        },
        {
          "indexed": true,
          "internalType": "address",
          "name": "holder",
          "type": "address"
        },
        {
          "indexed": false,
          "internalType": "string",
          "name": "credentialHash",
          "type": "string"
        }
      ],
      "name": "VCIssued",
      "type": "event"
    },
    {
      "anonymous": false,
      "inputs": [
        {
          "indexed": true,
          "internalType": "address",
          "name": "holder",
          "type": "address"
        },
        {
          "indexed": false,
          "internalType": "string",
          "name": "credentialHash",
          "type": "string"
        }
      ],
      "name": "VCRevoked",
      "type": "event"
    },
    {
      "inputs": [
        {
          "internalType": "address",
          "name": "user",
          "type": "address"
        }
      ],
      "name": "getDID",
      "outputs": [
        {
          "internalType": "string",
          "name": "",
          "type": "string"
        }
      ],
      "stateMutability": "view",
      "type": "function"
    },
    {
      "inputs": [
        {
          "internalType": "address",
          "name": "holder",
          "type": "address"
        },
        {
          "internalType": "string",
          "name": "credentialHash",
          "type": "string"
        }
      ],
      "name": "issueVC",
      "outputs": [],
      "stateMutability": "nonpayable",
      "type": "function"
    },
    {
      "inputs": [
        {
          "internalType": "address",
          "name": "user",
          "type": "address"
        },
        {
          "internalType": "string",
          "name": "did",
          "type": "string"
        }
      ],
      "name": "registerDID",
      "outputs": [],
      "stateMutability": "nonpayable",
      "type": "function"
    },
    {
      "inputs": [
        {
          "internalType": "address",
          "name": "holder",
          "type": "address"
        },
        {
          "internalType": "string",
          "name": "credentialHash",
          "type": "string"
        }
      ],
      "name": "revokeVC",
      "outputs": [],
      "stateMutability": "nonpayable",
      "type": "function"
    },
    {
      "inputs": [
        {
          "internalType": "address",
          "name": "holder",
          "type": "address"
        },
        {
          "internalType": "string",
          "name": "credentialHash",
          "type": "string"
        }
      ],
      "name": "verifyVC",
      "outputs": [
        {
          "internalType": "bool",
          "name": "",
          "type": "bool"
        }
      ],
      "stateMutability": "view",
      "type": "function"
    }
  ],
  "bytecode": "0x6080604052348015600f57600080fd5b506115048061001f6000396000f3fe608060405234801561001057600080fd5b50600436106100575760003560e01c80631bc0d5291461005c57806331d418c6146100785780637141d0be1461009457806374d1bd97146100c4578063f64e30b0146100e0575b600080fd5b61007660048036038101906100719190610bd9565b610110565b005b610092600480360381019061008d9190610bd9565b61040a565b005b6100ae60048036038101906100a99190610bd9565b610752565b6040516100bb9190610c54565b60405180910390f35b6100de60048036038101906100d99190610bd9565b61087f565b005b6100fa60048036038101906100f59190610c6f565b6109af565b6040516101079190610d2c565b60405180910390f35b60008060003373ffffffffffffffffffffffffffffffffffffffff1673ffffffffffffffffffffffffffffffffffffffff168152602001908152602001600020805461015b90610d7d565b90501161019d576040517f08c379a000000000000000000000000000000000000000000000000000000000815260040161019490610dfa565b60405180910390fd5b6000600160008573ffffffffffffffffffffffffffffffffffffffff1673ffffffffffffffffffffffffffffffffffffffff16815260200190815260200160002090506000805b82805490508110156103c2578484604051602001610203929190610e59565b6040516020818303038152906040528051906020012083828154811061022c5761022b610e72565b5b906000526020600020906004020160020160405160200161024d9190610f39565b604051602081830303815290604052805190602001201480156102df57503373ffffffffffffffffffffffffffffffffffffffff1683828154811061029557610294610e72565b5b906000526020600020906004020160000160009054906101000a900473ffffffffffffffffffffffffffffffffffffffff1673ffffffffffffffffffffffffffffffffffffffff16145b801561031a57508281815481106102f9576102f8610e72565b5b906000526020600020906004020160030160009054906101000a900460ff16155b156103b557600183828154811061033457610333610e72565b5b906000526020600020906004020160030160006101000a81548160ff021916908315150217905550600191508573ffffffffffffffffffffffffffffffffffffffff167f775dc1191cfff60c40587e740e04680b7b556b0ebe5fae7d85ec8beb6daa70ad86866040516103a8929190610f7d565b60405180910390a26103c2565b80806001019150506101e4565b5080610403576040517f08c379a00000000000000000000000000000000000000000000000000000000081526004016103fa90610fed565b60405180910390fd5b5050505050565b60008060003373ffffffffffffffffffffffffffffffffffffffff1673ffffffffffffffffffffffffffffffffffffffff168152602001908152602001600020805461045590610d7d565b905011610497576040517f08c379a000000000000000000000000000000000000000000000000000000000815260040161048e90610dfa565b60405180910390fd5b60008060008573ffffffffffffffffffffffffffffffffffffffff1673ffffffffffffffffffffffffffffffffffffffff16815260200190815260200160002080546104e290610d7d565b905011610524576040517f08c379a000000000000000000000000000000000000000000000000000000000815260040161051b90611059565b60405180910390fd5b600160008473ffffffffffffffffffffffffffffffffffffffff1673ffffffffffffffffffffffffffffffffffffffff16815260200190815260200160002060405180608001604052803373ffffffffffffffffffffffffffffffffffffffff1681526020018573ffffffffffffffffffffffffffffffffffffffff16815260200184848080601f016020809104026020016040519081016040528093929190818152602001838380828437600081840152601f19601f82011690508083019250505050505050815260200160001515815250908060018154018082558091505060019003906000526020600020906004020160009091909190915060008201518160000160006101000a81548173ffffffffffffffffffffffffffffffffffffffff021916908373ffffffffffffffffffffffffffffffffffffffff16021790555060208201518160010160006101000a81548173ffffffffffffffffffffffffffffffffffffffff021916908373ffffffffffffffffffffffffffffffffffffffff16021790555060408201518160020190816106c39190611249565b5060608201518160030160006101000a81548160ff02191690831515021790555050508273ffffffffffffffffffffffffffffffffffffffff163373ffffffffffffffffffffffffffffffffffffffff167f41bae96aaec1384a87eb4b32aca17aee9e78427155e929c53ab7468f3df953518484604051610745929190610f7d565b60405180910390a3505050565b600080600160008673ffffffffffffffffffffffffffffffffffffffff1673ffffffffffffffffffffffffffffffffffffffff168152602001908152602001600020905060005b81805490508110156108715784846040516020016107b8929190610e59565b604051602081830303815290604052805190602001208282815481106107e1576107e0610e72565b5b90600052602060002090600402016002016040516020016108029190610f39565b60405160208183030381529060405280519060200120148015610854575081818154811061083357610832610e72565b5b906000526020600020906004020160030160009054906101000a900460ff16155b1561086457600192505050610878565b8080600101915050610799565b5060009150505b9392505050565b60008060008573ffffffffffffffffffffffffffffffffffffffff1673ffffffffffffffffffffffffffffffffffffffff16815260200190815260200160002080546108ca90610d7d565b90501461090c576040517f08c379a000000000000000000000000000000000000000000000000000000000815260040161090390611367565b60405180910390fd5b81816000808673ffffffffffffffffffffffffffffffffffffffff1673ffffffffffffffffffffffffffffffffffffffff1681526020019081526020016000209182610959929190611392565b508273ffffffffffffffffffffffffffffffffffffffff167fbfab59a7af78dfc896c3096604749fcee2db2e850297de42de5e6369f54bd3fb83836040516109a2929190610f7d565b60405180910390a2505050565b606060008060008473ffffffffffffffffffffffffffffffffffffffff1673ffffffffffffffffffffffffffffffffffffffff16815260200190815260200160002080546109fc90610d7d565b905011610a3e576040517f08c379a0000000000000000000000000000000000000000000000000000000008152600401610a35906114ae565b60405180910390fd5b6000808373ffffffffffffffffffffffffffffffffffffffff1673ffffffffffffffffffffffffffffffffffffffff1681526020019081526020016000208054610a8790610d7d565b80601f0160208091040260200160405190810160405280929190818152602001828054610ab390610d7d565b8015610b005780601f10610ad557610100808354040283529160200191610b00565b820191906000526020600020905b815481529060010190602001808311610ae357829003601f168201915b50505050509050919050565b600080fd5b600080fd5b600073ffffffffffffffffffffffffffffffffffffffff82169050919050565b6000610b4182610b16565b9050919050565b610b5181610b36565b8114610b5c57600080fd5b50565b600081359050610b6e81610b48565b92915050565b600080fd5b600080fd5b600080fd5b60008083601f840112610b9957610b98610b74565b5b8235905067ffffffffffffffff811115610bb657610bb5610b79565b5b602083019150836001820283011115610bd257610bd1610b7e565b5b9250929050565b600080600060408486031215610bf257610bf1610b0c565b5b6000610c0086828701610b5f565b935050602084013567ffffffffffffffff811115610c2157610c20610b11565b5b610c2d86828701610b83565b92509250509250925092565b60008115159050919050565b610c4e81610c39565b82525050565b6000602082019050610c696000830184610c45565b92915050565b600060208284031215610c8557610c84610b0c565b5b6000610c9384828501610b5f565b91505092915050565b600081519050919050565b600082825260208201905092915050565b60005b83811015610cd6578082015181840152602081019050610cbb565b60008484015250505050565b6000601f19601f8301169050919050565b6000610cfe82610c9c565b610d088185610ca7565b9350610d18818560208601610cb8565b610d2181610ce2565b840191505092915050565b60006020820190508181036000830152610d468184610cf3565b905092915050565b7f4e487b7100000000000000000000000000000000000000000000000000000000600052602260045260246000fd5b60006002820490506001821680610d9557607f821691505b602082108103610da857610da7610d4e565b5b50919050565b7f49737375657220444944206e6f74207265676973746572656400000000000000600082015250565b6000610de4601983610ca7565b9150610def82610dae565b602082019050919050565b60006020820190508181036000830152610e1381610dd7565b9050919050565b600081905092915050565b82818337600083830152505050565b6000610e408385610e1a565b9350610e4d838584610e25565b82840190509392505050565b6000610e66828486610e34565b91508190509392505050565b7f4e487b7100000000000000000000000000000000000000000000000000000000600052603260045260246000fd5b60008190508160005260206000209050919050565b60008154610ec381610d7d565b610ecd8186610e1a565b94506001821660008114610ee85760018114610efd57610f30565b60ff1983168652811515820286019350610f30565b610f0685610ea1565b60005b83811015610f2857815481890152600182019150602081019050610f09565b838801955050505b50505092915050565b6000610f458284610eb6565b915081905092915050565b6000610f5c8385610ca7565b9350610f69838584610e25565b610f7283610ce2565b840190509392505050565b60006020820190508181036000830152610f98818486610f50565b90509392505050565b7f5643206e6f7420666f756e64206f7220616c7265616479207265766f6b656400600082015250565b6000610fd7601f83610ca7565b9150610fe282610fa1565b602082019050919050565b6000602082019050818103600083015261100681610fca565b9050919050565b7f486f6c64657220444944206e6f74207265676973746572656400000000000000600082015250565b6000611043601983610ca7565b915061104e8261100d565b602082019050919050565b6000602082019050818103600083015261107281611036565b9050919050565b7f4e487b7100000000000000000000000000000000000000000000000000000000600052604160045260246000fd5b60006020601f8301049050919050565b600082821b905092915050565b6000600883026110f57fffffffffffffffffffffffffffffffffffffffffffffffffffffffffffffffff826110b8565b6110ff86836110b8565b95508019841693508086168417925050509392505050565b6000819050919050565b6000819050919050565b600061114661114161113c84611117565b611121565b611117565b9050919050565b6000819050919050565b6111608361112b565b61117461116c8261114d565b8484546110c5565b825550505050565b600090565b61118961117c565b611194818484611157565b505050565b5b818110156111b8576111ad600082611181565b60018101905061119a565b5050565b601f8211156111fd576111ce81610ea1565b6111d7846110a8565b810160208510156111e6578190505b6111fa6111f2856110a8565b830182611199565b50505b505050565b600082821c905092915050565b600061122060001984600802611202565b1980831691505092915050565b6000611239838361120f565b9150826002028217905092915050565b61125282610c9c565b67ffffffffffffffff81111561126b5761126a611079565b5b6112758254610d7d565b6112808282856111bc565b600060209050601f8311600181146112b357600084156112a1578287015190505b6112ab858261122d565b865550611313565b601f1984166112c186610ea1565b60005b828110156112e9578489015182556001820191506020850194506020810190506112c4565b868310156113065784890151611302601f89168261120f565b8355505b6001600288020188555050505b505050505050565b7f44494420616c7265616479207265676973746572656400000000000000000000600082015250565b6000611351601683610ca7565b915061135c8261131b565b602082019050919050565b6000602082019050818103600083015261138081611344565b9050919050565b600082905092915050565b61139c8383611387565b67ffffffffffffffff8111156113b5576113b4611079565b5b6113bf8254610d7d565b6113ca8282856111bc565b6000601f8311600181146113f957600084156113e7578287013590505b6113f1858261122d565b865550611459565b601f19841661140786610ea1565b60005b8281101561142f5784890135825560018201915060208501945060208101905061140a565b8683101561144c5784890135611448601f89168261120f565b8355505b6001600288020188555050505b50505050505050565b7f444944206e6f7420666f756e6400000000000000000000000000000000000000600082015250565b6000611498600d83610ca7565b91506114a382611462565b602082019050919050565b600060208201905081810360008301526114c78161148b565b905091905056fea2646970667358221220e21e9306e79a36c54f2703dde6afae5b3677fe98602d6a575b09ade5ff83789a64736f6c634300081b0033",
  "linkReferences": {},
  "deployedLinkReferences": {}
}