{"contracts/DIDRegistry.sol":{"DIDRegistry":{"abi":[{"anonymous":false,"inputs":[{"indexed":true,"internalType":"address","name":"user","type":"address"},{"indexed":false,"internalType":"string","name":"did","type":"string"}],"name":"DIDRegistered","type":"event"},{"anonymous":false,"inputs":[{"indexed":true,"internalType":"address","name":"issuer","type":"address"},{"indexed":true,"internalType":"address","name":"holder","type":"address"},{"indexed":false,"internalType":"string","name":"credentialHash","type":"string"}],"name":"VCIssued","type":"event"},{"anonymous":false,"inputs":[{"indexed":true,"internalType":"address","name":"holder","type":"address"},{"indexed":false,"internalType":"string","name":"credentialHash","type":"string"}],"name":"VCRevoked","type":"event"},{"inputs":[{"internalType":"address","name":"user","type":"address"}],"name":"getDID","outputs":[{"internalType":"string","name":"","type":"string"}],"stateMutability":"view","type":"function"},{"inputs":[],"name":"getSigners","outputs":[{"internalType":"address[]","name":"","type":"address[]"}],"stateMutability":"view","type":"function"},{"inputs":[{"internalType":"address","name":"holder","type":"address"},{"internalType":"string","name":"credentialHash","type":"string"}],"name":"issueVC","outputs":[],"stateMutability":"nonpayable","type":"function"},{"inputs":[{"internalType":"address","name":"user","type":"address"},{"internalType":"bytes","name":"publicKey","type":"bytes"}],"name":"registerDID","outputs":[],"stateMutability":"nonpayable","type":"function"},{"inputs":[{"internalType":"address","name":"holder","type":"address"},{"internalType":"string","name":"credentialHash","type":"string"}],"name":"revokeVC","outputs":[],"stateMutability":"nonpayable","type":"function"},{"inputs":[{"internalType":"address","name":"holder","type":"address"},{"internalType":"string","name":"credentialHash","type":"string"}],"name":"verifyVC","outputs":[{"internalType":"bool","name":"","type":"bool"}],"stateMutability":"view","type":"function"}],"evm":{"bytecode":{"linkReferences":{},"object":"6080604052348015600f57600080fd5b50611b948061001f6000396000f3fe608060405234801561001057600080fd5b50600436106100625760003560e01c80630493def6146100675780631bc0d5291461008357806331d418c61461009f5780637141d0be146100bb57806394cf795e146100eb578063f64e30b014610109575b600080fd5b610081600480360381019061007c919061106a565b610139565b005b61009d60048036038101906100989190611120565b6102b7565b005b6100b960048036038101906100b49190611120565b6105b1565b005b6100d560048036038101906100d09190611120565b6108f9565b6040516100e2919061119b565b60405180910390f35b6100f3610a26565b6040516101009190611274565b60405180910390f35b610123600480360381019061011e9190611296565b610b1b565b6040516101309190611353565b60405180910390f35b60008060008573ffffffffffffffffffffffffffffffffffffffff1673ffffffffffffffffffffffffffffffffffffffff1681526020019081526020016000208054610184906113a4565b9050146101c6576040517f08c379a00000000000000000000000000000000000000000000000000000000081526004016101bd90611421565b60405180910390fd5b600061021583838080601f016020809104026020016040519081016040528093929190818152602001838380828437600081840152601f19601f82011690508083019250505050505050610c78565b9050806000808673ffffffffffffffffffffffffffffffffffffffff1673ffffffffffffffffffffffffffffffffffffffff16815260200190815260200160002090816102629190611626565b508373ffffffffffffffffffffffffffffffffffffffff167fbfab59a7af78dfc896c3096604749fcee2db2e850297de42de5e6369f54bd3fb826040516102a99190611353565b60405180910390a250505050565b60008060003373ffffffffffffffffffffffffffffffffffffffff1673ffffffffffffffffffffffffffffffffffffffff1681526020019081526020016000208054610302906113a4565b905011610344576040517f08c379a000000000000000000000000000000000000000000000000000000000815260040161033b90611744565b60405180910390fd5b6000600160008573ffffffffffffffffffffffffffffffffffffffff1673ffffffffffffffffffffffffffffffffffffffff16815260200190815260200160002090506000805b82805490508110156105695784846040516020016103aa9291906117a3565b604051602081830303815290604052805190602001208382815481106103d3576103d26117bc565b5b90600052602060002090600402016002016040516020016103f4919061186e565b6040516020818303038152906040528051906020012014801561048657503373ffffffffffffffffffffffffffffffffffffffff1683828154811061043c5761043b6117bc565b5b906000526020600020906004020160000160009054906101000a900473ffffffffffffffffffffffffffffffffffffffff1673ffffffffffffffffffffffffffffffffffffffff16145b80156104c157508281815481106104a05761049f6117bc565b5b906000526020600020906004020160030160009054906101000a900460ff16155b1561055c5760018382815481106104db576104da6117bc565b5b906000526020600020906004020160030160006101000a81548160ff021916908315150217905550600191508573ffffffffffffffffffffffffffffffffffffffff167f775dc1191cfff60c40587e740e04680b7b556b0ebe5fae7d85ec8beb6daa70ad868660405161054f9291906118b2565b60405180910390a2610569565b808060010191505061038b565b50806105aa576040517f08c379a00000000000000000000000000000000000000000000000000000000081526004016105a190611922565b60405180910390fd5b5050505050565b60008060003373ffffffffffffffffffffffffffffffffffffffff1673ffffffffffffffffffffffffffffffffffffffff16815260200190815260200160002080546105fc906113a4565b90501161063e576040517f08c379a000000000000000000000000000000000000000000000000000000000815260040161063590611744565b60405180910390fd5b60008060008573ffffffffffffffffffffffffffffffffffffffff1673ffffffffffffffffffffffffffffffffffffffff1681526020019081526020016000208054610689906113a4565b9050116106cb576040517f08c379a00000000000000000000000000000000000000000000000000000000081526004016106c29061198e565b60405180910390fd5b600160008473ffffffffffffffffffffffffffffffffffffffff1673ffffffffffffffffffffffffffffffffffffffff16815260200190815260200160002060405180608001604052803373ffffffffffffffffffffffffffffffffffffffff1681526020018573ffffffffffffffffffffffffffffffffffffffff16815260200184848080601f016020809104026020016040519081016040528093929190818152602001838380828437600081840152601f19601f82011690508083019250505050505050815260200160001515815250908060018154018082558091505060019003906000526020600020906004020160009091909190915060008201518160000160006101000a81548173ffffffffffffffffffffffffffffffffffffffff021916908373ffffffffffffffffffffffffffffffffffffffff16021790555060208201518160010160006101000a81548173ffffffffffffffffffffffffffffffffffffffff021916908373ffffffffffffffffffffffffffffffffffffffff160217905550604082015181600201908161086a9190611626565b5060608201518160030160006101000a81548160ff02191690831515021790555050508273ffffffffffffffffffffffffffffffffffffffff163373ffffffffffffffffffffffffffffffffffffffff167f41bae96aaec1384a87eb4b32aca17aee9e78427155e929c53ab7468f3df9535184846040516108ec9291906118b2565b60405180910390a3505050565b600080600160008673ffffffffffffffffffffffffffffffffffffffff1673ffffffffffffffffffffffffffffffffffffffff168152602001908152602001600020905060005b8180549050811015610a1857848460405160200161095f9291906117a3565b60405160208183030381529060405280519060200120828281548110610988576109876117bc565b5b90600052602060002090600402016002016040516020016109a9919061186e565b604051602081830303815290604052805190602001201480156109fb57508181815481106109da576109d96117bc565b5b906000526020600020906004020160030160009054906101000a900460ff16155b15610a0b57600192505050610a1f565b8080600101915050610940565b5060009150505b9392505050565b60606000600267ffffffffffffffff811115610a4557610a44611441565b5b604051908082528060200260200182016040528015610a735781602001602082028036833780820191505090505b5090503381600081518110610a8b57610a8a6117bc565b5b602002602001019073ffffffffffffffffffffffffffffffffffffffff16908173ffffffffffffffffffffffffffffffffffffffff16815250503081600181518110610ada57610ad96117bc565b5b602002602001019073ffffffffffffffffffffffffffffffffffffffff16908173ffffffffffffffffffffffffffffffffffffffff16815250508091505090565b606060008060008473ffffffffffffffffffffffffffffffffffffffff1673ffffffffffffffffffffffffffffffffffffffff1681526020019081526020016000208054610b68906113a4565b905011610baa576040517f08c379a0000000000000000000000000000000000000000000000000000000008152600401610ba1906119fa565b60405180910390fd5b6000808373ffffffffffffffffffffffffffffffffffffffff1673ffffffffffffffffffffffffffffffffffffffff1681526020019081526020016000208054610bf3906113a4565b80601f0160208091040260200160405190810160405280929190818152602001828054610c1f906113a4565b8015610c6c5780601f10610c4157610100808354040283529160200191610c6c565b820191906000526020600020905b815481529060010190602001808311610c4f57829003601f168201915b50505050509050919050565b6060610c8382610ca9565b604051602001610c939190611a97565b6040516020818303038152906040529050919050565b606060006040518060400160405280601081526020017f30313233343536373839616263646566000000000000000000000000000000008152509050600060028451610cf59190611ae8565b6002610d019190611b2a565b67ffffffffffffffff811115610d1a57610d19611441565b5b6040519080825280601f01601f191660200182016040528015610d4c5781602001600182028036833780820191505090505b5090507f300000000000000000000000000000000000000000000000000000000000000081600081518110610d8457610d836117bc565b5b60200101907effffffffffffffffffffffffffffffffffffffffffffffffffffffffffffff1916908160001a9053507f780000000000000000000000000000000000000000000000000000000000000081600181518110610de857610de76117bc565b5b60200101907effffffffffffffffffffffffffffffffffffffffffffffffffffffffffffff1916908160001a90535060005b8451811015610f9257826004868381518110610e3957610e386117bc565b5b602001015160f81c60f81b7effffffffffffffffffffffffffffffffffffffffffffffffffffffffffffff1916901c60f81c60ff1681518110610e7f57610e7e6117bc565b5b602001015160f81c60f81b82600283610e989190611ae8565b6002610ea49190611b2a565b81518110610eb557610eb46117bc565b5b60200101907effffffffffffffffffffffffffffffffffffffffffffffffffffffffffffff1916908160001a90535082600f60f81b868381518110610efd57610efc6117bc565b5b602001015160f81c60f81b1660f81c60ff1681518110610f2057610f1f6117bc565b5b602001015160f81c60f81b82600283610f399190611ae8565b6003610f459190611b2a565b81518110610f5657610f556117bc565b5b60200101907effffffffffffffffffffffffffffffffffffffffffffffffffffffffffffff1916908160001a9053508080600101915050610e1a565b508092505050919050565b600080fd5b600080fd5b600073ffffffffffffffffffffffffffffffffffffffff82169050919050565b6000610fd282610fa7565b9050919050565b610fe281610fc7565b8114610fed57600080fd5b50565b600081359050610fff81610fd9565b92915050565b600080fd5b600080fd5b600080fd5b60008083601f84011261102a57611029611005565b5b8235905067ffffffffffffffff8111156110475761104661100a565b5b6020830191508360018202830111156110635761106261100f565b5b9250929050565b60008060006040848603121561108357611082610f9d565b5b600061109186828701610ff0565b935050602084013567ffffffffffffffff8111156110b2576110b1610fa2565b5b6110be86828701611014565b92509250509250925092565b60008083601f8401126110e0576110df611005565b5b8235905067ffffffffffffffff8111156110fd576110fc61100a565b5b6020830191508360018202830111156111195761111861100f565b5b9250929050565b60008060006040848603121561113957611138610f9d565b5b600061114786828701610ff0565b935050602084013567ffffffffffffffff81111561116857611167610fa2565b5b611174868287016110ca565b92509250509250925092565b60008115159050919050565b61119581611180565b82525050565b60006020820190506111b0600083018461118c565b92915050565b600081519050919050565b600082825260208201905092915050565b6000819050602082019050919050565b6111eb81610fc7565b82525050565b60006111fd83836111e2565b60208301905092915050565b6000602082019050919050565b6000611221826111b6565b61122b81856111c1565b9350611236836111d2565b8060005b8381101561126757815161124e88826111f1565b975061125983611209565b92505060018101905061123a565b5085935050505092915050565b6000602082019050818103600083015261128e8184611216565b905092915050565b6000602082840312156112ac576112ab610f9d565b5b60006112ba84828501610ff0565b91505092915050565b600081519050919050565b600082825260208201905092915050565b60005b838110156112fd5780820151818401526020810190506112e2565b60008484015250505050565b6000601f19601f8301169050919050565b6000611325826112c3565b61132f81856112ce565b935061133f8185602086016112df565b61134881611309565b840191505092915050565b6000602082019050818103600083015261136d818461131a565b905092915050565b7f4e487b7100000000000000000000000000000000000000000000000000000000600052602260045260246000fd5b600060028204905060018216806113bc57607f821691505b6020821081036113cf576113ce611375565b5b50919050565b7f44494420616c7265616479207265676973746572656400000000000000000000600082015250565b600061140b6016836112ce565b9150611416826113d5565b602082019050919050565b6000602082019050818103600083015261143a816113fe565b9050919050565b7f4e487b7100000000000000000000000000000000000000000000000000000000600052604160045260246000fd5b60008190508160005260206000209050919050565b60006020601f8301049050919050565b600082821b905092915050565b6000600883026114d27fffffffffffffffffffffffffffffffffffffffffffffffffffffffffffffffff82611495565b6114dc8683611495565b95508019841693508086168417925050509392505050565b6000819050919050565b6000819050919050565b600061152361151e611519846114f4565b6114fe565b6114f4565b9050919050565b6000819050919050565b61153d83611508565b6115516115498261152a565b8484546114a2565b825550505050565b600090565b611566611559565b611571818484611534565b505050565b5b818110156115955761158a60008261155e565b600181019050611577565b5050565b601f8211156115da576115ab81611470565b6115b484611485565b810160208510156115c3578190505b6115d76115cf85611485565b830182611576565b50505b505050565b600082821c905092915050565b60006115fd600019846008026115df565b1980831691505092915050565b600061161683836115ec565b9150826002028217905092915050565b61162f826112c3565b67ffffffffffffffff81111561164857611647611441565b5b61165282546113a4565b61165d828285611599565b600060209050601f831160018114611690576000841561167e578287015190505b611688858261160a565b8655506116f0565b601f19841661169e86611470565b60005b828110156116c6578489015182556001820191506020850194506020810190506116a1565b868310156116e357848901516116df601f8916826115ec565b8355505b6001600288020188555050505b505050505050565b7f49737375657220444944206e6f74207265676973746572656400000000000000600082015250565b600061172e6019836112ce565b9150611739826116f8565b602082019050919050565b6000602082019050818103600083015261175d81611721565b9050919050565b600081905092915050565b82818337600083830152505050565b600061178a8385611764565b935061179783858461176f565b82840190509392505050565b60006117b082848661177e565b91508190509392505050565b7f4e487b7100000000000000000000000000000000000000000000000000000000600052603260045260246000fd5b600081546117f8816113a4565b6118028186611764565b9450600182166000811461181d576001811461183257611865565b60ff1983168652811515820286019350611865565b61183b85611470565b60005b8381101561185d5781548189015260018201915060208101905061183e565b838801955050505b50505092915050565b600061187a82846117eb565b915081905092915050565b600061189183856112ce565b935061189e83858461176f565b6118a783611309565b840190509392505050565b600060208201905081810360008301526118cd818486611885565b90509392505050565b7f5643206e6f7420666f756e64206f7220616c7265616479207265766f6b656400600082015250565b600061190c601f836112ce565b9150611917826118d6565b602082019050919050565b6000602082019050818103600083015261193b816118ff565b9050919050565b7f486f6c64657220444944206e6f74207265676973746572656400000000000000600082015250565b60006119786019836112ce565b915061198382611942565b602082019050919050565b600060208201905081810360008301526119a78161196b565b9050919050565b7f444944206e6f7420666f756e6400000000000000000000000000000000000000600082015250565b60006119e4600d836112ce565b91506119ef826119ae565b602082019050919050565b60006020820190508181036000830152611a13816119d7565b9050919050565b7f6469643a6b65793a000000000000000000000000000000000000000000000000600082015250565b6000611a50600883611764565b9150611a5b82611a1a565b600882019050919050565b6000611a71826112c3565b611a7b8185611764565b9350611a8b8185602086016112df565b80840191505092915050565b6000611aa282611a43565b9150611aae8284611a66565b915081905092915050565b7f4e487b7100000000000000000000000000000000000000000000000000000000600052601160045260246000fd5b6000611af3826114f4565b9150611afe836114f4565b9250828202611b0c816114f4565b91508282048414831517611b2357611b22611ab9565b5b5092915050565b6000611b35826114f4565b9150611b40836114f4565b9250828201905080821115611b5857611b57611ab9565b5b9291505056fea2646970667358221220fc98d65aaa56f244faf2b4c67135438331ba956d66c758511f25dae5986224a864736f6c634300081b0033","opcodes":"PUSH1 0x80 PUSH1 0x40 MSTORE CALLVALUE DUP1 ISZERO PUSH1 0xF JUMPI PUSH1 0x0 DUP1 REVERT JUMPDEST POP PUSH2 0x1B94 DUP1 PUSH2 0x1F PUSH1 0x0 CODECOPY PUSH1 0x0 RETURN INVALID PUSH1 0x80 PUSH1 0x40 MSTORE CALLVALUE DUP1 ISZERO PUSH2 0x10 JUMPI PUSH1 0x0 DUP1 REVERT JUMPDEST POP PUSH1 0x4 CALLDATASIZE LT PUSH2 0x62 JUMPI PUSH1 0x0 CALLDATALOAD PUSH1 0xE0 SHR DUP1 PUSH4 0x493DEF6 EQ PUSH2 0x67 JUMPI DUP1 PUSH4 0x1BC0D529 EQ PUSH2 0x83 JUMPI DUP1 PUSH4 0x31D418C6 EQ PUSH2 0x9F JUMPI DUP1 PUSH4 0x7141D0BE EQ PUSH2 0xBB JUMPI DUP1 PUSH4 0x94CF795E EQ PUSH2 0xEB JUMPI DUP1 PUSH4 0xF64E30B0 EQ PUSH2 0x109 JUMPI JUMPDEST PUSH1 0x0 DUP1 REVERT JUMPDEST PUSH2 0x81 PUSH1 0x4 DUP1 CALLDATASIZE SUB DUP2 ADD SWAP1 PUSH2 0x7C SWAP2 SWAP1 PUSH2 0x106A JUMP JUMPDEST PUSH2 0x139 JUMP JUMPDEST STOP JUMPDEST PUSH2 0x9D PUSH1 0x4 DUP1 CALLDATASIZE SUB DUP2 ADD SWAP1 PUSH2 0x98 SWAP2 SWAP1 PUSH2 0x1120 JUMP JUMPDEST PUSH2 0x2B7 JUMP JUMPDEST STOP JUMPDEST PUSH2 0xB9 PUSH1 0x4 DUP1 CALLDATASIZE SUB DUP2 ADD SWAP1 PUSH2 0xB4 SWAP2 SWAP1 PUSH2 0x1120 JUMP JUMPDEST PUSH2 0x5B1 JUMP JUMPDEST STOP JUMPDEST PUSH2 0xD5 PUSH1 0x4 DUP1 CALLDATASIZE SUB DUP2 ADD SWAP1 PUSH2 0xD0 SWAP2 SWAP1 PUSH2 0x1120 JUMP JUMPDEST PUSH2 0x8F9 JUMP JUMPDEST PUSH1 0x40 MLOAD PUSH2 0xE2 SWAP2 SWAP1 PUSH2 0x119B JUMP JUMPDEST PUSH1 0x40 MLOAD DUP1 SWAP2 SUB SWAP1 RETURN JUMPDEST PUSH2 0xF3 PUSH2 0xA26 JUMP JUMPDEST PUSH1 0x40 MLOAD PUSH2 0x100 SWAP2 SWAP1 PUSH2 0x1274 JUMP JUMPDEST PUSH1 0x40 MLOAD DUP1 SWAP2 SUB SWAP1 RETURN JUMPDEST PUSH2 0x123 PUSH1 0x4 DUP1 CALLDATASIZE SUB DUP2 ADD SWAP1 PUSH2 0x11E SWAP2 SWAP1 PUSH2 0x1296 JUMP JUMPDEST PUSH2 0xB1B JUMP JUMPDEST PUSH1 0x40 MLOAD PUSH2 0x130 SWAP2 SWAP1 PUSH2 0x1353 JUMP JUMPDEST PUSH1 0x40 MLOAD DUP1 SWAP2 SUB SWAP1 RETURN JUMPDEST PUSH1 0x0 DUP1 PUSH1 0x0 DUP6 PUSH20 0xFFFFFFFFFFFFFFFFFFFFFFFFFFFFFFFFFFFFFFFF AND PUSH20 0xFFFFFFFFFFFFFFFFFFFFFFFFFFFFFFFFFFFFFFFF AND DUP2 MSTORE PUSH1 0x20 ADD SWAP1 DUP2 MSTORE PUSH1 0x20 ADD PUSH1 0x0 KECCAK256 DUP1 SLOAD PUSH2 0x184 SWAP1 PUSH2 0x13A4 JUMP JUMPDEST SWAP1 POP EQ PUSH2 0x1C6 JUMPI PUSH1 0x40 MLOAD PUSH32 0x8C379A000000000000000000000000000000000000000000000000000000000 DUP2 MSTORE PUSH1 0x4 ADD PUSH2 0x1BD SWAP1 PUSH2 0x1421 JUMP JUMPDEST PUSH1 0x40 MLOAD DUP1 SWAP2 SUB SWAP1 REVERT JUMPDEST PUSH1 0x0 PUSH2 0x215 DUP4 DUP4 DUP1 DUP1 PUSH1 0x1F ADD PUSH1 0x20 DUP1 SWAP2 DIV MUL PUSH1 0x20 ADD PUSH1 0x40 MLOAD SWAP1 DUP2 ADD PUSH1 0x40 MSTORE DUP1 SWAP4 SWAP3 SWAP2 SWAP1 DUP2 DUP2 MSTORE PUSH1 0x20 ADD DUP4 DUP4 DUP1 DUP3 DUP5 CALLDATACOPY PUSH1 0x0 DUP2 DUP5 ADD MSTORE PUSH1 0x1F NOT PUSH1 0x1F DUP3 ADD AND SWAP1 POP DUP1 DUP4 ADD SWAP3 POP POP POP POP POP POP POP PUSH2 0xC78 JUMP JUMPDEST SWAP1 POP DUP1 PUSH1 0x0 DUP1 DUP7 PUSH20 0xFFFFFFFFFFFFFFFFFFFFFFFFFFFFFFFFFFFFFFFF AND PUSH20 0xFFFFFFFFFFFFFFFFFFFFFFFFFFFFFFFFFFFFFFFF AND DUP2 MSTORE PUSH1 0x20 ADD SWAP1 DUP2 MSTORE PUSH1 0x20 ADD PUSH1 0x0 KECCAK256 SWAP1 DUP2 PUSH2 0x262 SWAP2 SWAP1 PUSH2 0x1626 JUMP JUMPDEST POP DUP4 PUSH20 0xFFFFFFFFFFFFFFFFFFFFFFFFFFFFFFFFFFFFFFFF AND PUSH32 0xBFAB59A7AF78DFC896C3096604749FCEE2DB2E850297DE42DE5E6369F54BD3FB DUP3 PUSH1 0x40 MLOAD PUSH2 0x2A9 SWAP2 SWAP1 PUSH2 0x1353 JUMP JUMPDEST PUSH1 0x40 MLOAD DUP1 SWAP2 SUB SWAP1 LOG2 POP POP POP POP JUMP JUMPDEST PUSH1 0x0 DUP1 PUSH1 0x0 CALLER PUSH20 0xFFFFFFFFFFFFFFFFFFFFFFFFFFFFFFFFFFFFFFFF AND PUSH20 0xFFFFFFFFFFFFFFFFFFFFFFFFFFFFFFFFFFFFFFFF AND DUP2 MSTORE PUSH1 0x20 ADD SWAP1 DUP2 MSTORE PUSH1 0x20 ADD PUSH1 0x0 KECCAK256 DUP1 SLOAD PUSH2 0x302 SWAP1 PUSH2 0x13A4 JUMP JUMPDEST SWAP1 POP GT PUSH2 0x344 JUMPI PUSH1 0x40 MLOAD PUSH32 0x8C379A000000000000000000000000000000000000000000000000000000000 DUP2 MSTORE PUSH1 0x4 ADD PUSH2 0x33B SWAP1 PUSH2 0x1744 JUMP JUMPDEST PUSH1 0x40 MLOAD DUP1 SWAP2 SUB SWAP1 REVERT JUMPDEST PUSH1 0x0 PUSH1 0x1 PUSH1 0x0 DUP6 PUSH20 0xFFFFFFFFFFFFFFFFFFFFFFFFFFFFFFFFFFFFFFFF AND PUSH20 0xFFFFFFFFFFFFFFFFFFFFFFFFFFFFFFFFFFFFFFFF AND DUP2 MSTORE PUSH1 0x20 ADD SWAP1 DUP2 MSTORE PUSH1 0x20 ADD PUSH1 0x0 KECCAK256 SWAP1 POP PUSH1 0x0 DUP1 JUMPDEST DUP3 DUP1 SLOAD SWAP1 POP DUP2 LT ISZERO PUSH2 0x569 JUMPI DUP5 DUP5 PUSH1 0x40 MLOAD PUSH1 0x20 ADD PUSH2 0x3AA SWAP3 SWAP2 SWAP1 PUSH2 0x17A3 JUMP JUMPDEST PUSH1 0x40 MLOAD PUSH1 0x20 DUP2 DUP4 SUB SUB DUP2 MSTORE SWAP1 PUSH1 0x40 MSTORE DUP1 MLOAD SWAP1 PUSH1 0x20 ADD KECCAK256 DUP4 DUP3 DUP2 SLOAD DUP2 LT PUSH2 0x3D3 JUMPI PUSH2 0x3D2 PUSH2 0x17BC JUMP JUMPDEST JUMPDEST SWAP1 PUSH1 0x0 MSTORE PUSH1 0x20 PUSH1 0x0 KECCAK256 SWAP1 PUSH1 0x4 MUL ADD PUSH1 0x2 ADD PUSH1 0x40 MLOAD PUSH1 0x20 ADD PUSH2 0x3F4 SWAP2 SWAP1 PUSH2 0x186E JUMP JUMPDEST PUSH1 0x40 MLOAD PUSH1 0x20 DUP2 DUP4 SUB SUB DUP2 MSTORE SWAP1 PUSH1 0x40 MSTORE DUP1 MLOAD SWAP1 PUSH1 0x20 ADD KECCAK256 EQ DUP1 ISZERO PUSH2 0x486 JUMPI POP CALLER PUSH20 0xFFFFFFFFFFFFFFFFFFFFFFFFFFFFFFFFFFFFFFFF AND DUP4 DUP3 DUP2 SLOAD DUP2 LT PUSH2 0x43C JUMPI PUSH2 0x43B PUSH2 0x17BC JUMP JUMPDEST JUMPDEST SWAP1 PUSH1 0x0 MSTORE PUSH1 0x20 PUSH1 0x0 KECCAK256 SWAP1 PUSH1 0x4 MUL ADD PUSH1 0x0 ADD PUSH1 0x0 SWAP1 SLOAD SWAP1 PUSH2 0x100 EXP SWAP1 DIV PUSH20 0xFFFFFFFFFFFFFFFFFFFFFFFFFFFFFFFFFFFFFFFF AND PUSH20 0xFFFFFFFFFFFFFFFFFFFFFFFFFFFFFFFFFFFFFFFF AND EQ JUMPDEST DUP1 ISZERO PUSH2 0x4C1 JUMPI POP DUP3 DUP2 DUP2 SLOAD DUP2 LT PUSH2 0x4A0 JUMPI PUSH2 0x49F PUSH2 0x17BC JUMP JUMPDEST JUMPDEST SWAP1 PUSH1 0x0 MSTORE PUSH1 0x20 PUSH1 0x0 KECCAK256 SWAP1 PUSH1 0x4 MUL ADD PUSH1 0x3 ADD PUSH1 0x0 SWAP1 SLOAD SWAP1 PUSH2 0x100 EXP SWAP1 DIV PUSH1 0xFF AND ISZERO JUMPDEST ISZERO PUSH2 0x55C JUMPI PUSH1 0x1 DUP4 DUP3 DUP2 SLOAD DUP2 LT PUSH2 0x4DB JUMPI PUSH2 0x4DA PUSH2 0x17BC JUMP JUMPDEST JUMPDEST SWAP1 PUSH1 0x0 MSTORE PUSH1 0x20 PUSH1 0x0 KECCAK256 SWAP1 PUSH1 0x4 MUL ADD PUSH1 0x3 ADD PUSH1 0x0 PUSH2 0x100 EXP DUP2 SLOAD DUP2 PUSH1 0xFF MUL NOT AND SWAP1 DUP4 ISZERO ISZERO MUL OR SWAP1 SSTORE POP PUSH1 0x1 SWAP2 POP DUP6 PUSH20 0xFFFFFFFFFFFFFFFFFFFFFFFFFFFFFFFFFFFFFFFF AND PUSH32 0x775DC1191CFFF60C40587E740E04680B7B556B0EBE5FAE7D85EC8BEB6DAA70AD DUP7 DUP7 PUSH1 0x40 MLOAD PUSH2 0x54F SWAP3 SWAP2 SWAP1 PUSH2 0x18B2 JUMP JUMPDEST PUSH1 0x40 MLOAD DUP1 SWAP2 SUB SWAP1 LOG2 PUSH2 0x569 JUMP JUMPDEST DUP1 DUP1 PUSH1 0x1 ADD SWAP2 POP POP PUSH2 0x38B JUMP JUMPDEST POP DUP1 PUSH2 0x5AA JUMPI PUSH1 0x40 MLOAD PUSH32 0x8C379A000000000000000000000000000000000000000000000000000000000 DUP2 MSTORE PUSH1 0x4 ADD PUSH2 0x5A1 SWAP1 PUSH2 0x1922 JUMP JUMPDEST PUSH1 0x40 MLOAD DUP1 SWAP2 SUB SWAP1 REVERT JUMPDEST POP POP POP POP POP JUMP JUMPDEST PUSH1 0x0 DUP1 PUSH1 0x0 CALLER PUSH20 0xFFFFFFFFFFFFFFFFFFFFFFFFFFFFFFFFFFFFFFFF AND PUSH20 0xFFFFFFFFFFFFFFFFFFFFFFFFFFFFFFFFFFFFFFFF AND DUP2 MSTORE PUSH1 0x20 ADD SWAP1 DUP2 MSTORE PUSH1 0x20 ADD PUSH1 0x0 KECCAK256 DUP1 SLOAD PUSH2 0x5FC SWAP1 PUSH2 0x13A4 JUMP JUMPDEST SWAP1 POP GT PUSH2 0x63E JUMPI PUSH1 0x40 MLOAD PUSH32 0x8C379A000000000000000000000000000000000000000000000000000000000 DUP2 MSTORE PUSH1 0x4 ADD PUSH2 0x635 SWAP1 PUSH2 0x1744 JUMP JUMPDEST PUSH1 0x40 MLOAD DUP1 SWAP2 SUB SWAP1 REVERT JUMPDEST PUSH1 0x0 DUP1 PUSH1 0x0 DUP6 PUSH20 0xFFFFFFFFFFFFFFFFFFFFFFFFFFFFFFFFFFFFFFFF AND PUSH20 0xFFFFFFFFFFFFFFFFFFFFFFFFFFFFFFFFFFFFFFFF AND DUP2 MSTORE PUSH1 0x20 ADD SWAP1 DUP2 MSTORE PUSH1 0x20 ADD PUSH1 0x0 KECCAK256 DUP1 SLOAD PUSH2 0x689 SWAP1 PUSH2 0x13A4 JUMP JUMPDEST SWAP1 POP GT PUSH2 0x6CB JUMPI PUSH1 0x40 MLOAD PUSH32 0x8C379A000000000000000000000000000000000000000000000000000000000 DUP2 MSTORE PUSH1 0x4 ADD PUSH2 0x6C2 SWAP1 PUSH2 0x198E JUMP JUMPDEST PUSH1 0x40 MLOAD DUP1 SWAP2 SUB SWAP1 REVERT JUMPDEST PUSH1 0x1 PUSH1 0x0 DUP5 PUSH20 0xFFFFFFFFFFFFFFFFFFFFFFFFFFFFFFFFFFFFFFFF AND PUSH20 0xFFFFFFFFFFFFFFFFFFFFFFFFFFFFFFFFFFFFFFFF AND DUP2 MSTORE PUSH1 0x20 ADD SWAP1 DUP2 MSTORE PUSH1 0x20 ADD PUSH1 0x0 KECCAK256 PUSH1 0x40 MLOAD DUP1 PUSH1 0x80 ADD PUSH1 0x40 MSTORE DUP1 CALLER PUSH20 0xFFFFFFFFFFFFFFFFFFFFFFFFFFFFFFFFFFFFFFFF AND DUP2 MSTORE PUSH1 0x20 ADD DUP6 PUSH20 0xFFFFFFFFFFFFFFFFFFFFFFFFFFFFFFFFFFFFFFFF AND DUP2 MSTORE PUSH1 0x20 ADD DUP5 DUP5 DUP1 DUP1 PUSH1 0x1F ADD PUSH1 0x20 DUP1 SWAP2 DIV MUL PUSH1 0x20 ADD PUSH1 0x40 MLOAD SWAP1 DUP2 ADD PUSH1 0x40 MSTORE DUP1 SWAP4 SWAP3 SWAP2 SWAP1 DUP2 DUP2 MSTORE PUSH1 0x20 ADD DUP4 DUP4 DUP1 DUP3 DUP5 CALLDATACOPY PUSH1 0x0 DUP2 DUP5 ADD MSTORE PUSH1 0x1F NOT PUSH1 0x1F DUP3 ADD AND SWAP1 POP DUP1 DUP4 ADD SWAP3 POP POP POP POP POP POP POP DUP2 MSTORE PUSH1 0x20 ADD PUSH1 0x0 ISZERO ISZERO DUP2 MSTORE POP SWAP1 DUP1 PUSH1 0x1 DUP2 SLOAD ADD DUP1 DUP3 SSTORE DUP1 SWAP2 POP POP PUSH1 0x1 SWAP1 SUB SWAP1 PUSH1 0x0 MSTORE PUSH1 0x20 PUSH1 0x0 KECCAK256 SWAP1 PUSH1 0x4 MUL ADD PUSH1 0x0 SWAP1 SWAP2 SWAP1 SWAP2 SWAP1 SWAP2 POP PUSH1 0x0 DUP3 ADD MLOAD DUP2 PUSH1 0x0 ADD PUSH1 0x0 PUSH2 0x100 EXP DUP2 SLOAD DUP2 PUSH20 0xFFFFFFFFFFFFFFFFFFFFFFFFFFFFFFFFFFFFFFFF MUL NOT AND SWAP1 DUP4 PUSH20 0xFFFFFFFFFFFFFFFFFFFFFFFFFFFFFFFFFFFFFFFF AND MUL OR SWAP1 SSTORE POP PUSH1 0x20 DUP3 ADD MLOAD DUP2 PUSH1 0x1 ADD PUSH1 0x0 PUSH2 0x100 EXP DUP2 SLOAD DUP2 PUSH20 0xFFFFFFFFFFFFFFFFFFFFFFFFFFFFFFFFFFFFFFFF MUL NOT AND SWAP1 DUP4 PUSH20 0xFFFFFFFFFFFFFFFFFFFFFFFFFFFFFFFFFFFFFFFF AND MUL OR SWAP1 SSTORE POP PUSH1 0x40 DUP3 ADD MLOAD DUP2 PUSH1 0x2 ADD SWAP1 DUP2 PUSH2 0x86A SWAP2 SWAP1 PUSH2 0x1626 JUMP JUMPDEST POP PUSH1 0x60 DUP3 ADD MLOAD DUP2 PUSH1 0x3 ADD PUSH1 0x0 PUSH2 0x100 EXP DUP2 SLOAD DUP2 PUSH1 0xFF MUL NOT AND SWAP1 DUP4 ISZERO ISZERO MUL OR SWAP1 SSTORE POP POP POP DUP3 PUSH20 0xFFFFFFFFFFFFFFFFFFFFFFFFFFFFFFFFFFFFFFFF AND CALLER PUSH20 0xFFFFFFFFFFFFFFFFFFFFFFFFFFFFFFFFFFFFFFFF AND PUSH32 0x41BAE96AAEC1384A87EB4B32ACA17AEE9E78427155E929C53AB7468F3DF95351 DUP5 DUP5 PUSH1 0x40 MLOAD PUSH2 0x8EC SWAP3 SWAP2 SWAP1 PUSH2 0x18B2 JUMP JUMPDEST PUSH1 0x40 MLOAD DUP1 SWAP2 SUB SWAP1 LOG3 POP POP POP JUMP JUMPDEST PUSH1 0x0 DUP1 PUSH1 0x1 PUSH1 0x0 DUP7 PUSH20 0xFFFFFFFFFFFFFFFFFFFFFFFFFFFFFFFFFFFFFFFF AND PUSH20 0xFFFFFFFFFFFFFFFFFFFFFFFFFFFFFFFFFFFFFFFF AND DUP2 MSTORE PUSH1 0x20 ADD SWAP1 DUP2 MSTORE PUSH1 0x20 ADD PUSH1 0x0 KECCAK256 SWAP1 POP PUSH1 0x0 JUMPDEST DUP2 DUP1 SLOAD SWAP1 POP DUP2 LT ISZERO PUSH2 0xA18 JUMPI DUP5 DUP5 PUSH1 0x40 MLOAD PUSH1 0x20 ADD PUSH2 0x95F SWAP3 SWAP2 SWAP1 PUSH2 0x17A3 JUMP JUMPDEST PUSH1 0x40 MLOAD PUSH1 0x20 DUP2 DUP4 SUB SUB DUP2 MSTORE SWAP1 PUSH1 0x40 MSTORE DUP1 MLOAD SWAP1 PUSH1 0x20 ADD KECCAK256 DUP3 DUP3 DUP2 SLOAD DUP2 LT PUSH2 0x988 JUMPI PUSH2 0x987 PUSH2 0x17BC JUMP JUMPDEST JUMPDEST SWAP1 PUSH1 0x0 MSTORE PUSH1 0x20 PUSH1 0x0 KECCAK256 SWAP1 PUSH1 0x4 MUL ADD PUSH1 0x2 ADD PUSH1 0x40 MLOAD PUSH1 0x20 ADD PUSH2 0x9A9 SWAP2 SWAP1 PUSH2 0x186E JUMP JUMPDEST PUSH1 0x40 MLOAD PUSH1 0x20 DUP2 DUP4 SUB SUB DUP2 MSTORE SWAP1 PUSH1 0x40 MSTORE DUP1 MLOAD SWAP1 PUSH1 0x20 ADD KECCAK256 EQ DUP1 ISZERO PUSH2 0x9FB JUMPI POP DUP2 DUP2 DUP2 SLOAD DUP2 LT PUSH2 0x9DA JUMPI PUSH2 0x9D9 PUSH2 0x17BC JUMP JUMPDEST JUMPDEST SWAP1 PUSH1 0x0 MSTORE PUSH1 0x20 PUSH1 0x0 KECCAK256 SWAP1 PUSH1 0x4 MUL ADD PUSH1 0x3 ADD PUSH1 0x0 SWAP1 SLOAD SWAP1 PUSH2 0x100 EXP SWAP1 DIV PUSH1 0xFF AND ISZERO JUMPDEST ISZERO PUSH2 0xA0B JUMPI PUSH1 0x1 SWAP3 POP POP POP PUSH2 0xA1F JUMP JUMPDEST DUP1 DUP1 PUSH1 0x1 ADD SWAP2 POP POP PUSH2 0x940 JUMP JUMPDEST POP PUSH1 0x0 SWAP2 POP POP JUMPDEST SWAP4 SWAP3 POP POP POP JUMP JUMPDEST PUSH1 0x60 PUSH1 0x0 PUSH1 0x2 PUSH8 0xFFFFFFFFFFFFFFFF DUP2 GT ISZERO PUSH2 0xA45 JUMPI PUSH2 0xA44 PUSH2 0x1441 JUMP JUMPDEST JUMPDEST PUSH1 0x40 MLOAD SWAP1 DUP1 DUP3 MSTORE DUP1 PUSH1 0x20 MUL PUSH1 0x20 ADD DUP3 ADD PUSH1 0x40 MSTORE DUP1 ISZERO PUSH2 0xA73 JUMPI DUP2 PUSH1 0x20 ADD PUSH1 0x20 DUP3 MUL DUP1 CALLDATASIZE DUP4 CALLDATACOPY DUP1 DUP3 ADD SWAP2 POP POP SWAP1 POP JUMPDEST POP SWAP1 POP CALLER DUP2 PUSH1 0x0 DUP2 MLOAD DUP2 LT PUSH2 0xA8B JUMPI PUSH2 0xA8A PUSH2 0x17BC JUMP JUMPDEST JUMPDEST PUSH1 0x20 MUL PUSH1 0x20 ADD ADD SWAP1 PUSH20 0xFFFFFFFFFFFFFFFFFFFFFFFFFFFFFFFFFFFFFFFF AND SWAP1 DUP2 PUSH20 0xFFFFFFFFFFFFFFFFFFFFFFFFFFFFFFFFFFFFFFFF AND DUP2 MSTORE POP POP ADDRESS DUP2 PUSH1 0x1 DUP2 MLOAD DUP2 LT PUSH2 0xADA JUMPI PUSH2 0xAD9 PUSH2 0x17BC JUMP JUMPDEST JUMPDEST PUSH1 0x20 MUL PUSH1 0x20 ADD ADD SWAP1 PUSH20 0xFFFFFFFFFFFFFFFFFFFFFFFFFFFFFFFFFFFFFFFF AND SWAP1 DUP2 PUSH20 0xFFFFFFFFFFFFFFFFFFFFFFFFFFFFFFFFFFFFFFFF AND DUP2 MSTORE POP POP DUP1 SWAP2 POP POP SWAP1 JUMP JUMPDEST PUSH1 0x60 PUSH1 0x0 DUP1 PUSH1 0x0 DUP5 PUSH20 0xFFFFFFFFFFFFFFFFFFFFFFFFFFFFFFFFFFFFFFFF AND PUSH20 0xFFFFFFFFFFFFFFFFFFFFFFFFFFFFFFFFFFFFFFFF AND DUP2 MSTORE PUSH1 0x20 ADD SWAP1 DUP2 MSTORE PUSH1 0x20 ADD PUSH1 0x0 KECCAK256 DUP1 SLOAD PUSH2 0xB68 SWAP1 PUSH2 0x13A4 JUMP JUMPDEST SWAP1 POP GT PUSH2 0xBAA JUMPI PUSH1 0x40 MLOAD PUSH32 0x8C379A000000000000000000000000000000000000000000000000000000000 DUP2 MSTORE PUSH1 0x4 ADD PUSH2 0xBA1 SWAP1 PUSH2 0x19FA JUMP JUMPDEST PUSH1 0x40 MLOAD DUP1 SWAP2 SUB SWAP1 REVERT JUMPDEST PUSH1 0x0 DUP1 DUP4 PUSH20 0xFFFFFFFFFFFFFFFFFFFFFFFFFFFFFFFFFFFFFFFF AND PUSH20 0xFFFFFFFFFFFFFFFFFFFFFFFFFFFFFFFFFFFFFFFF AND DUP2 MSTORE PUSH1 0x20 ADD SWAP1 DUP2 MSTORE PUSH1 0x20 ADD PUSH1 0x0 KECCAK256 DUP1 SLOAD PUSH2 0xBF3 SWAP1 PUSH2 0x13A4 JUMP JUMPDEST DUP1 PUSH1 0x1F ADD PUSH1 0x20 DUP1 SWAP2 DIV MUL PUSH1 0x20 ADD PUSH1 0x40 MLOAD SWAP1 DUP2 ADD PUSH1 0x40 MSTORE DUP1 SWAP3 SWAP2 SWAP1 DUP2 DUP2 MSTORE PUSH1 0x20 ADD DUP3 DUP1 SLOAD PUSH2 0xC1F SWAP1 PUSH2 0x13A4 JUMP JUMPDEST DUP1 ISZERO PUSH2 0xC6C JUMPI DUP1 PUSH1 0x1F LT PUSH2 0xC41 JUMPI PUSH2 0x100 DUP1 DUP4 SLOAD DIV MUL DUP4 MSTORE SWAP2 PUSH1 0x20 ADD SWAP2 PUSH2 0xC6C JUMP JUMPDEST DUP3 ADD SWAP2 SWAP1 PUSH1 0x0 MSTORE PUSH1 0x20 PUSH1 0x0 KECCAK256 SWAP1 JUMPDEST DUP2 SLOAD DUP2 MSTORE SWAP1 PUSH1 0x1 ADD SWAP1 PUSH1 0x20 ADD DUP1 DUP4 GT PUSH2 0xC4F JUMPI DUP3 SWAP1 SUB PUSH1 0x1F AND DUP3 ADD SWAP2 JUMPDEST POP POP POP POP POP SWAP1 POP SWAP2 SWAP1 POP JUMP JUMPDEST PUSH1 0x60 PUSH2 0xC83 DUP3 PUSH2 0xCA9 JUMP JUMPDEST PUSH1 0x40 MLOAD PUSH1 0x20 ADD PUSH2 0xC93 SWAP2 SWAP1 PUSH2 0x1A97 JUMP JUMPDEST PUSH1 0x40 MLOAD PUSH1 0x20 DUP2 DUP4 SUB SUB DUP2 MSTORE SWAP1 PUSH1 0x40 MSTORE SWAP1 POP SWAP2 SWAP1 POP JUMP JUMPDEST PUSH1 0x60 PUSH1 0x0 PUSH1 0x40 MLOAD DUP1 PUSH1 0x40 ADD PUSH1 0x40 MSTORE DUP1 PUSH1 0x10 DUP2 MSTORE PUSH1 0x20 ADD PUSH32 0x3031323334353637383961626364656600000000000000000000000000000000 DUP2 MSTORE POP SWAP1 POP PUSH1 0x0 PUSH1 0x2 DUP5 MLOAD PUSH2 0xCF5 SWAP2 SWAP1 PUSH2 0x1AE8 JUMP JUMPDEST PUSH1 0x2 PUSH2 0xD01 SWAP2 SWAP1 PUSH2 0x1B2A JUMP JUMPDEST PUSH8 0xFFFFFFFFFFFFFFFF DUP2 GT ISZERO PUSH2 0xD1A JUMPI PUSH2 0xD19 PUSH2 0x1441 JUMP JUMPDEST JUMPDEST PUSH1 0x40 MLOAD SWAP1 DUP1 DUP3 MSTORE DUP1 PUSH1 0x1F ADD PUSH1 0x1F NOT AND PUSH1 0x20 ADD DUP3 ADD PUSH1 0x40 MSTORE DUP1 ISZERO PUSH2 0xD4C JUMPI DUP2 PUSH1 0x20 ADD PUSH1 0x1 DUP3 MUL DUP1 CALLDATASIZE DUP4 CALLDATACOPY DUP1 DUP3 ADD SWAP2 POP POP SWAP1 POP JUMPDEST POP SWAP1 POP PUSH32 0x3000000000000000000000000000000000000000000000000000000000000000 DUP2 PUSH1 0x0 DUP2 MLOAD DUP2 LT PUSH2 0xD84 JUMPI PUSH2 0xD83 PUSH2 0x17BC JUMP JUMPDEST JUMPDEST PUSH1 0x20 ADD ADD SWAP1 PUSH31 0xFFFFFFFFFFFFFFFFFFFFFFFFFFFFFFFFFFFFFFFFFFFFFFFFFFFFFFFFFFFFFF NOT AND SWAP1 DUP2 PUSH1 0x0 BYTE SWAP1 MSTORE8 POP PUSH32 0x7800000000000000000000000000000000000000000000000000000000000000 DUP2 PUSH1 0x1 DUP2 MLOAD DUP2 LT PUSH2 0xDE8 JUMPI PUSH2 0xDE7 PUSH2 0x17BC JUMP JUMPDEST JUMPDEST PUSH1 0x20 ADD ADD SWAP1 PUSH31 0xFFFFFFFFFFFFFFFFFFFFFFFFFFFFFFFFFFFFFFFFFFFFFFFFFFFFFFFFFFFFFF NOT AND SWAP1 DUP2 PUSH1 0x0 BYTE SWAP1 MSTORE8 POP PUSH1 0x0 JUMPDEST DUP5 MLOAD DUP2 LT ISZERO PUSH2 0xF92 JUMPI DUP3 PUSH1 0x4 DUP7 DUP4 DUP2 MLOAD DUP2 LT PUSH2 0xE39 JUMPI PUSH2 0xE38 PUSH2 0x17BC JUMP JUMPDEST JUMPDEST PUSH1 0x20 ADD ADD MLOAD PUSH1 0xF8 SHR PUSH1 0xF8 SHL PUSH31 0xFFFFFFFFFFFFFFFFFFFFFFFFFFFFFFFFFFFFFFFFFFFFFFFFFFFFFFFFFFFFFF NOT AND SWAP1 SHR PUSH1 0xF8 SHR PUSH1 0xFF AND DUP2 MLOAD DUP2 LT PUSH2 0xE7F JUMPI PUSH2 0xE7E PUSH2 0x17BC JUMP JUMPDEST JUMPDEST PUSH1 0x20 ADD ADD MLOAD PUSH1 0xF8 SHR PUSH1 0xF8 SHL DUP3 PUSH1 0x2 DUP4 PUSH2 0xE98 SWAP2 SWAP1 PUSH2 0x1AE8 JUMP JUMPDEST PUSH1 0x2 PUSH2 0xEA4 SWAP2 SWAP1 PUSH2 0x1B2A JUMP JUMPDEST DUP2 MLOAD DUP2 LT PUSH2 0xEB5 JUMPI PUSH2 0xEB4 PUSH2 0x17BC JUMP JUMPDEST JUMPDEST PUSH1 0x20 ADD ADD SWAP1 PUSH31 0xFFFFFFFFFFFFFFFFFFFFFFFFFFFFFFFFFFFFFFFFFFFFFFFFFFFFFFFFFFFFFF NOT AND SWAP1 DUP2 PUSH1 0x0 BYTE SWAP1 MSTORE8 POP DUP3 PUSH1 0xF PUSH1 0xF8 SHL DUP7 DUP4 DUP2 MLOAD DUP2 LT PUSH2 0xEFD JUMPI PUSH2 0xEFC PUSH2 0x17BC JUMP JUMPDEST JUMPDEST PUSH1 0x20 ADD ADD MLOAD PUSH1 0xF8 SHR PUSH1 0xF8 SHL AND PUSH1 0xF8 SHR PUSH1 0xFF AND DUP2 MLOAD DUP2 LT PUSH2 0xF20 JUMPI PUSH2 0xF1F PUSH2 0x17BC JUMP JUMPDEST JUMPDEST PUSH1 0x20 ADD ADD MLOAD PUSH1 0xF8 SHR PUSH1 0xF8 SHL DUP3 PUSH1 0x2 DUP4 PUSH2 0xF39 SWAP2 SWAP1 PUSH2 0x1AE8 JUMP JUMPDEST PUSH1 0x3 PUSH2 0xF45 SWAP2 SWAP1 PUSH2 0x1B2A JUMP JUMPDEST DUP2 MLOAD DUP2 LT PUSH2 0xF56 JUMPI PUSH2 0xF55 PUSH2 0x17BC JUMP JUMPDEST JUMPDEST PUSH1 0x20 ADD ADD SWAP1 PUSH31 0xFFFFFFFFFFFFFFFFFFFFFFFFFFFFFFFFFFFFFFFFFFFFFFFFFFFFFFFFFFFFFF NOT AND SWAP1 DUP2 PUSH1 0x0 BYTE SWAP1 MSTORE8 POP DUP1 DUP1 PUSH1 0x1 ADD SWAP2 POP POP PUSH2 0xE1A JUMP JUMPDEST POP DUP1 SWAP3 POP POP POP SWAP2 SWAP1 POP JUMP JUMPDEST PUSH1 0x0 DUP1 REVERT JUMPDEST PUSH1 0x0 DUP1 REVERT JUMPDEST PUSH1 0x0 PUSH20 0xFFFFFFFFFFFFFFFFFFFFFFFFFFFFFFFFFFFFFFFF DUP3 AND SWAP1 POP SWAP2 SWAP1 POP JUMP JUMPDEST PUSH1 0x0 PUSH2 0xFD2 DUP3 PUSH2 0xFA7 JUMP JUMPDEST SWAP1 POP SWAP2 SWAP1 POP JUMP JUMPDEST PUSH2 0xFE2 DUP2 PUSH2 0xFC7 JUMP JUMPDEST DUP2 EQ PUSH2 0xFED JUMPI PUSH1 0x0 DUP1 REVERT JUMPDEST POP JUMP JUMPDEST PUSH1 0x0 DUP2 CALLDATALOAD SWAP1 POP PUSH2 0xFFF DUP2 PUSH2 0xFD9 JUMP JUMPDEST SWAP3 SWAP2 POP POP JUMP JUMPDEST PUSH1 0x0 DUP1 REVERT JUMPDEST PUSH1 0x0 DUP1 REVERT JUMPDEST PUSH1 0x0 DUP1 REVERT JUMPDEST PUSH1 0x0 DUP1 DUP4 PUSH1 0x1F DUP5 ADD SLT PUSH2 0x102A JUMPI PUSH2 0x1029 PUSH2 0x1005 JUMP JUMPDEST JUMPDEST DUP3 CALLDATALOAD SWAP1 POP PUSH8 0xFFFFFFFFFFFFFFFF DUP2 GT ISZERO PUSH2 0x1047 JUMPI PUSH2 0x1046 PUSH2 0x100A JUMP JUMPDEST JUMPDEST PUSH1 0x20 DUP4 ADD SWAP2 POP DUP4 PUSH1 0x1 DUP3 MUL DUP4 ADD GT ISZERO PUSH2 0x1063 JUMPI PUSH2 0x1062 PUSH2 0x100F JUMP JUMPDEST JUMPDEST SWAP3 POP SWAP3 SWAP1 POP JUMP JUMPDEST PUSH1 0x0 DUP1 PUSH1 0x0 PUSH1 0x40 DUP5 DUP7 SUB SLT ISZERO PUSH2 0x1083 JUMPI PUSH2 0x1082 PUSH2 0xF9D JUMP JUMPDEST JUMPDEST PUSH1 0x0 PUSH2 0x1091 DUP7 DUP3 DUP8 ADD PUSH2 0xFF0 JUMP JUMPDEST SWAP4 POP POP PUSH1 0x20 DUP5 ADD CALLDATALOAD PUSH8 0xFFFFFFFFFFFFFFFF DUP2 GT ISZERO PUSH2 0x10B2 JUMPI PUSH2 0x10B1 PUSH2 0xFA2 JUMP JUMPDEST JUMPDEST PUSH2 0x10BE DUP7 DUP3 DUP8 ADD PUSH2 0x1014 JUMP JUMPDEST SWAP3 POP SWAP3 POP POP SWAP3 POP SWAP3 POP SWAP3 JUMP JUMPDEST PUSH1 0x0 DUP1 DUP4 PUSH1 0x1F DUP5 ADD SLT PUSH2 0x10E0 JUMPI PUSH2 0x10DF PUSH2 0x1005 JUMP JUMPDEST JUMPDEST DUP3 CALLDATALOAD SWAP1 POP PUSH8 0xFFFFFFFFFFFFFFFF DUP2 GT ISZERO PUSH2 0x10FD JUMPI PUSH2 0x10FC PUSH2 0x100A JUMP JUMPDEST JUMPDEST PUSH1 0x20 DUP4 ADD SWAP2 POP DUP4 PUSH1 0x1 DUP3 MUL DUP4 ADD GT ISZERO PUSH2 0x1119 JUMPI PUSH2 0x1118 PUSH2 0x100F JUMP JUMPDEST JUMPDEST SWAP3 POP SWAP3 SWAP1 POP JUMP JUMPDEST PUSH1 0x0 DUP1 PUSH1 0x0 PUSH1 0x40 DUP5 DUP7 SUB SLT ISZERO PUSH2 0x1139 JUMPI PUSH2 0x1138 PUSH2 0xF9D JUMP JUMPDEST JUMPDEST PUSH1 0x0 PUSH2 0x1147 DUP7 DUP3 DUP8 ADD PUSH2 0xFF0 JUMP JUMPDEST SWAP4 POP POP PUSH1 0x20 DUP5 ADD CALLDATALOAD PUSH8 0xFFFFFFFFFFFFFFFF DUP2 GT ISZERO PUSH2 0x1168 JUMPI PUSH2 0x1167 PUSH2 0xFA2 JUMP JUMPDEST JUMPDEST PUSH2 0x1174 DUP7 DUP3 DUP8 ADD PUSH2 0x10CA JUMP JUMPDEST SWAP3 POP SWAP3 POP POP SWAP3 POP SWAP3 POP SWAP3 JUMP JUMPDEST PUSH1 0x0 DUP2 ISZERO ISZERO SWAP1 POP SWAP2 SWAP1 POP JUMP JUMPDEST PUSH2 0x1195 DUP2 PUSH2 0x1180 JUMP JUMPDEST DUP3 MSTORE POP POP JUMP JUMPDEST PUSH1 0x0 PUSH1 0x20 DUP3 ADD SWAP1 POP PUSH2 0x11B0 PUSH1 0x0 DUP4 ADD DUP5 PUSH2 0x118C JUMP JUMPDEST SWAP3 SWAP2 POP POP JUMP JUMPDEST PUSH1 0x0 DUP2 MLOAD SWAP1 POP SWAP2 SWAP1 POP JUMP JUMPDEST PUSH1 0x0 DUP3 DUP3 MSTORE PUSH1 0x20 DUP3 ADD SWAP1 POP SWAP3 SWAP2 POP POP JUMP JUMPDEST PUSH1 0x0 DUP2 SWAP1 POP PUSH1 0x20 DUP3 ADD SWAP1 POP SWAP2 SWAP1 POP JUMP JUMPDEST PUSH2 0x11EB DUP2 PUSH2 0xFC7 JUMP JUMPDEST DUP3 MSTORE POP POP JUMP JUMPDEST PUSH1 0x0 PUSH2 0x11FD DUP4 DUP4 PUSH2 0x11E2 JUMP JUMPDEST PUSH1 0x20 DUP4 ADD SWAP1 POP SWAP3 SWAP2 POP POP JUMP JUMPDEST PUSH1 0x0 PUSH1 0x20 DUP3 ADD SWAP1 POP SWAP2 SWAP1 POP JUMP JUMPDEST PUSH1 0x0 PUSH2 0x1221 DUP3 PUSH2 0x11B6 JUMP JUMPDEST PUSH2 0x122B DUP2 DUP6 PUSH2 0x11C1 JUMP JUMPDEST SWAP4 POP PUSH2 0x1236 DUP4 PUSH2 0x11D2 JUMP JUMPDEST DUP1 PUSH1 0x0 JUMPDEST DUP4 DUP2 LT ISZERO PUSH2 0x1267 JUMPI DUP2 MLOAD PUSH2 0x124E DUP9 DUP3 PUSH2 0x11F1 JUMP JUMPDEST SWAP8 POP PUSH2 0x1259 DUP4 PUSH2 0x1209 JUMP JUMPDEST SWAP3 POP POP PUSH1 0x1 DUP2 ADD SWAP1 POP PUSH2 0x123A JUMP JUMPDEST POP DUP6 SWAP4 POP POP POP POP SWAP3 SWAP2 POP POP JUMP JUMPDEST PUSH1 0x0 PUSH1 0x20 DUP3 ADD SWAP1 POP DUP2 DUP2 SUB PUSH1 0x0 DUP4 ADD MSTORE PUSH2 0x128E DUP2 DUP5 PUSH2 0x1216 JUMP JUMPDEST SWAP1 POP SWAP3 SWAP2 POP POP JUMP JUMPDEST PUSH1 0x0 PUSH1 0x20 DUP3 DUP5 SUB SLT ISZERO PUSH2 0x12AC JUMPI PUSH2 0x12AB PUSH2 0xF9D JUMP JUMPDEST JUMPDEST PUSH1 0x0 PUSH2 0x12BA DUP5 DUP3 DUP6 ADD PUSH2 0xFF0 JUMP JUMPDEST SWAP2 POP POP SWAP3 SWAP2 POP POP JUMP JUMPDEST PUSH1 0x0 DUP2 MLOAD SWAP1 POP SWAP2 SWAP1 POP JUMP JUMPDEST PUSH1 0x0 DUP3 DUP3 MSTORE PUSH1 0x20 DUP3 ADD SWAP1 POP SWAP3 SWAP2 POP POP JUMP JUMPDEST PUSH1 0x0 JUMPDEST DUP4 DUP2 LT ISZERO PUSH2 0x12FD JUMPI DUP1 DUP3 ADD MLOAD DUP2 DUP5 ADD MSTORE PUSH1 0x20 DUP2 ADD SWAP1 POP PUSH2 0x12E2 JUMP JUMPDEST PUSH1 0x0 DUP5 DUP5 ADD MSTORE POP POP POP POP JUMP JUMPDEST PUSH1 0x0 PUSH1 0x1F NOT PUSH1 0x1F DUP4 ADD AND SWAP1 POP SWAP2 SWAP1 POP JUMP JUMPDEST PUSH1 0x0 PUSH2 0x1325 DUP3 PUSH2 0x12C3 JUMP JUMPDEST PUSH2 0x132F DUP2 DUP6 PUSH2 0x12CE JUMP JUMPDEST SWAP4 POP PUSH2 0x133F DUP2 DUP6 PUSH1 0x20 DUP7 ADD PUSH2 0x12DF JUMP JUMPDEST PUSH2 0x1348 DUP2 PUSH2 0x1309 JUMP JUMPDEST DUP5 ADD SWAP2 POP POP SWAP3 SWAP2 POP POP JUMP JUMPDEST PUSH1 0x0 PUSH1 0x20 DUP3 ADD SWAP1 POP DUP2 DUP2 SUB PUSH1 0x0 DUP4 ADD MSTORE PUSH2 0x136D DUP2 DUP5 PUSH2 0x131A JUMP JUMPDEST SWAP1 POP SWAP3 SWAP2 POP POP JUMP JUMPDEST PUSH32 0x4E487B7100000000000000000000000000000000000000000000000000000000 PUSH1 0x0 MSTORE PUSH1 0x22 PUSH1 0x4 MSTORE PUSH1 0x24 PUSH1 0x0 REVERT JUMPDEST PUSH1 0x0 PUSH1 0x2 DUP3 DIV SWAP1 POP PUSH1 0x1 DUP3 AND DUP1 PUSH2 0x13BC JUMPI PUSH1 0x7F DUP3 AND SWAP2 POP JUMPDEST PUSH1 0x20 DUP3 LT DUP2 SUB PUSH2 0x13CF JUMPI PUSH2 0x13CE PUSH2 0x1375 JUMP JUMPDEST JUMPDEST POP SWAP2 SWAP1 POP JUMP JUMPDEST PUSH32 0x44494420616C7265616479207265676973746572656400000000000000000000 PUSH1 0x0 DUP3 ADD MSTORE POP JUMP JUMPDEST PUSH1 0x0 PUSH2 0x140B PUSH1 0x16 DUP4 PUSH2 0x12CE JUMP JUMPDEST SWAP2 POP PUSH2 0x1416 DUP3 PUSH2 0x13D5 JUMP JUMPDEST PUSH1 0x20 DUP3 ADD SWAP1 POP SWAP2 SWAP1 POP JUMP JUMPDEST PUSH1 0x0 PUSH1 0x20 DUP3 ADD SWAP1 POP DUP2 DUP2 SUB PUSH1 0x0 DUP4 ADD MSTORE PUSH2 0x143A DUP2 PUSH2 0x13FE JUMP JUMPDEST SWAP1 POP SWAP2 SWAP1 POP JUMP JUMPDEST PUSH32 0x4E487B7100000000000000000000000000000000000000000000000000000000 PUSH1 0x0 MSTORE PUSH1 0x41 PUSH1 0x4 MSTORE PUSH1 0x24 PUSH1 0x0 REVERT JUMPDEST PUSH1 0x0 DUP2 SWAP1 POP DUP2 PUSH1 0x0 MSTORE PUSH1 0x20 PUSH1 0x0 KECCAK256 SWAP1 POP SWAP2 SWAP1 POP JUMP JUMPDEST PUSH1 0x0 PUSH1 0x20 PUSH1 0x1F DUP4 ADD DIV SWAP1 POP SWAP2 SWAP1 POP JUMP JUMPDEST PUSH1 0x0 DUP3 DUP3 SHL SWAP1 POP SWAP3 SWAP2 POP POP JUMP JUMPDEST PUSH1 0x0 PUSH1 0x8 DUP4 MUL PUSH2 0x14D2 PUSH32 0xFFFFFFFFFFFFFFFFFFFFFFFFFFFFFFFFFFFFFFFFFFFFFFFFFFFFFFFFFFFFFFFF DUP3 PUSH2 0x1495 JUMP JUMPDEST PUSH2 0x14DC DUP7 DUP4 PUSH2 0x1495 JUMP JUMPDEST SWAP6 POP DUP1 NOT DUP5 AND SWAP4 POP DUP1 DUP7 AND DUP5 OR SWAP3 POP POP POP SWAP4 SWAP3 POP POP POP JUMP JUMPDEST PUSH1 0x0 DUP2 SWAP1 POP SWAP2 SWAP1 POP JUMP JUMPDEST PUSH1 0x0 DUP2 SWAP1 POP SWAP2 SWAP1 POP JUMP JUMPDEST PUSH1 0x0 PUSH2 0x1523 PUSH2 0x151E PUSH2 0x1519 DUP5 PUSH2 0x14F4 JUMP JUMPDEST PUSH2 0x14FE JUMP JUMPDEST PUSH2 0x14F4 JUMP JUMPDEST SWAP1 POP SWAP2 SWAP1 POP JUMP JUMPDEST PUSH1 0x0 DUP2 SWAP1 POP SWAP2 SWAP1 POP JUMP JUMPDEST PUSH2 0x153D DUP4 PUSH2 0x1508 JUMP JUMPDEST PUSH2 0x1551 PUSH2 0x1549 DUP3 PUSH2 0x152A JUMP JUMPDEST DUP5 DUP5 SLOAD PUSH2 0x14A2 JUMP JUMPDEST DUP3 SSTORE POP POP POP POP JUMP JUMPDEST PUSH1 0x0 SWAP1 JUMP JUMPDEST PUSH2 0x1566 PUSH2 0x1559 JUMP JUMPDEST PUSH2 0x1571 DUP2 DUP5 DUP5 PUSH2 0x1534 JUMP JUMPDEST POP POP POP JUMP JUMPDEST JUMPDEST DUP2 DUP2 LT ISZERO PUSH2 0x1595 JUMPI PUSH2 0x158A PUSH1 0x0 DUP3 PUSH2 0x155E JUMP JUMPDEST PUSH1 0x1 DUP2 ADD SWAP1 POP PUSH2 0x1577 JUMP JUMPDEST POP POP JUMP JUMPDEST PUSH1 0x1F DUP3 GT ISZERO PUSH2 0x15DA JUMPI PUSH2 0x15AB DUP2 PUSH2 0x1470 JUMP JUMPDEST PUSH2 0x15B4 DUP5 PUSH2 0x1485 JUMP JUMPDEST DUP2 ADD PUSH1 0x20 DUP6 LT ISZERO PUSH2 0x15C3 JUMPI DUP2 SWAP1 POP JUMPDEST PUSH2 0x15D7 PUSH2 0x15CF DUP6 PUSH2 0x1485 JUMP JUMPDEST DUP4 ADD DUP3 PUSH2 0x1576 JUMP JUMPDEST POP POP JUMPDEST POP POP POP JUMP JUMPDEST PUSH1 0x0 DUP3 DUP3 SHR SWAP1 POP SWAP3 SWAP2 POP POP JUMP JUMPDEST PUSH1 0x0 PUSH2 0x15FD PUSH1 0x0 NOT DUP5 PUSH1 0x8 MUL PUSH2 0x15DF JUMP JUMPDEST NOT DUP1 DUP4 AND SWAP2 POP POP SWAP3 SWAP2 POP POP JUMP JUMPDEST PUSH1 0x0 PUSH2 0x1616 DUP4 DUP4 PUSH2 0x15EC JUMP JUMPDEST SWAP2 POP DUP3 PUSH1 0x2 MUL DUP3 OR SWAP1 POP SWAP3 SWAP2 POP POP JUMP JUMPDEST PUSH2 0x162F DUP3 PUSH2 0x12C3 JUMP JUMPDEST PUSH8 0xFFFFFFFFFFFFFFFF DUP2 GT ISZERO PUSH2 0x1648 JUMPI PUSH2 0x1647 PUSH2 0x1441 JUMP JUMPDEST JUMPDEST PUSH2 0x1652 DUP3 SLOAD PUSH2 0x13A4 JUMP JUMPDEST PUSH2 0x165D DUP3 DUP3 DUP6 PUSH2 0x1599 JUMP JUMPDEST PUSH1 0x0 PUSH1 0x20 SWAP1 POP PUSH1 0x1F DUP4 GT PUSH1 0x1 DUP2 EQ PUSH2 0x1690 JUMPI PUSH1 0x0 DUP5 ISZERO PUSH2 0x167E JUMPI DUP3 DUP8 ADD MLOAD SWAP1 POP JUMPDEST PUSH2 0x1688 DUP6 DUP3 PUSH2 0x160A JUMP JUMPDEST DUP7 SSTORE POP PUSH2 0x16F0 JUMP JUMPDEST PUSH1 0x1F NOT DUP5 AND PUSH2 0x169E DUP7 PUSH2 0x1470 JUMP JUMPDEST PUSH1 0x0 JUMPDEST DUP3 DUP2 LT ISZERO PUSH2 0x16C6 JUMPI DUP5 DUP10 ADD MLOAD DUP3 SSTORE PUSH1 0x1 DUP3 ADD SWAP2 POP PUSH1 0x20 DUP6 ADD SWAP5 POP PUSH1 0x20 DUP2 ADD SWAP1 POP PUSH2 0x16A1 JUMP JUMPDEST DUP7 DUP4 LT ISZERO PUSH2 0x16E3 JUMPI DUP5 DUP10 ADD MLOAD PUSH2 0x16DF PUSH1 0x1F DUP10 AND DUP3 PUSH2 0x15EC JUMP JUMPDEST DUP4 SSTORE POP JUMPDEST PUSH1 0x1 PUSH1 0x2 DUP9 MUL ADD DUP9 SSTORE POP POP POP JUMPDEST POP POP POP POP POP POP JUMP JUMPDEST PUSH32 0x49737375657220444944206E6F74207265676973746572656400000000000000 PUSH1 0x0 DUP3 ADD MSTORE POP JUMP JUMPDEST PUSH1 0x0 PUSH2 0x172E PUSH1 0x19 DUP4 PUSH2 0x12CE JUMP JUMPDEST SWAP2 POP PUSH2 0x1739 DUP3 PUSH2 0x16F8 JUMP JUMPDEST PUSH1 0x20 DUP3 ADD SWAP1 POP SWAP2 SWAP1 POP JUMP JUMPDEST PUSH1 0x0 PUSH1 0x20 DUP3 ADD SWAP1 POP DUP2 DUP2 SUB PUSH1 0x0 DUP4 ADD MSTORE PUSH2 0x175D DUP2 PUSH2 0x1721 JUMP JUMPDEST SWAP1 POP SWAP2 SWAP1 POP JUMP JUMPDEST PUSH1 0x0 DUP2 SWAP1 POP SWAP3 SWAP2 POP POP JUMP JUMPDEST DUP3 DUP2 DUP4 CALLDATACOPY PUSH1 0x0 DUP4 DUP4 ADD MSTORE POP POP POP JUMP JUMPDEST PUSH1 0x0 PUSH2 0x178A DUP4 DUP6 PUSH2 0x1764 JUMP JUMPDEST SWAP4 POP PUSH2 0x1797 DUP4 DUP6 DUP5 PUSH2 0x176F JUMP JUMPDEST DUP3 DUP5 ADD SWAP1 POP SWAP4 SWAP3 POP POP POP JUMP JUMPDEST PUSH1 0x0 PUSH2 0x17B0 DUP3 DUP5 DUP7 PUSH2 0x177E JUMP JUMPDEST SWAP2 POP DUP2 SWAP1 POP SWAP4 SWAP3 POP POP POP JUMP JUMPDEST PUSH32 0x4E487B7100000000000000000000000000000000000000000000000000000000 PUSH1 0x0 MSTORE PUSH1 0x32 PUSH1 0x4 MSTORE PUSH1 0x24 PUSH1 0x0 REVERT JUMPDEST PUSH1 0x0 DUP2 SLOAD PUSH2 0x17F8 DUP2 PUSH2 0x13A4 JUMP JUMPDEST PUSH2 0x1802 DUP2 DUP7 PUSH2 0x1764 JUMP JUMPDEST SWAP5 POP PUSH1 0x1 DUP3 AND PUSH1 0x0 DUP2 EQ PUSH2 0x181D JUMPI PUSH1 0x1 DUP2 EQ PUSH2 0x1832 JUMPI PUSH2 0x1865 JUMP JUMPDEST PUSH1 0xFF NOT DUP4 AND DUP7 MSTORE DUP2 ISZERO ISZERO DUP3 MUL DUP7 ADD SWAP4 POP PUSH2 0x1865 JUMP JUMPDEST PUSH2 0x183B DUP6 PUSH2 0x1470 JUMP JUMPDEST PUSH1 0x0 JUMPDEST DUP4 DUP2 LT ISZERO PUSH2 0x185D JUMPI DUP2 SLOAD DUP2 DUP10 ADD MSTORE PUSH1 0x1 DUP3 ADD SWAP2 POP PUSH1 0x20 DUP2 ADD SWAP1 POP PUSH2 0x183E JUMP JUMPDEST DUP4 DUP9 ADD SWAP6 POP POP POP JUMPDEST POP POP POP SWAP3 SWAP2 POP POP JUMP JUMPDEST PUSH1 0x0 PUSH2 0x187A DUP3 DUP5 PUSH2 0x17EB JUMP JUMPDEST SWAP2 POP DUP2 SWAP1 POP SWAP3 SWAP2 POP POP JUMP JUMPDEST PUSH1 0x0 PUSH2 0x1891 DUP4 DUP6 PUSH2 0x12CE JUMP JUMPDEST SWAP4 POP PUSH2 0x189E DUP4 DUP6 DUP5 PUSH2 0x176F JUMP JUMPDEST PUSH2 0x18A7 DUP4 PUSH2 0x1309 JUMP JUMPDEST DUP5 ADD SWAP1 POP SWAP4 SWAP3 POP POP POP JUMP JUMPDEST PUSH1 0x0 PUSH1 0x20 DUP3 ADD SWAP1 POP DUP2 DUP2 SUB PUSH1 0x0 DUP4 ADD MSTORE PUSH2 0x18CD DUP2 DUP5 DUP7 PUSH2 0x1885 JUMP JUMPDEST SWAP1 POP SWAP4 SWAP3 POP POP POP JUMP JUMPDEST PUSH32 0x5643206E6F7420666F756E64206F7220616C7265616479207265766F6B656400 PUSH1 0x0 DUP3 ADD MSTORE POP JUMP JUMPDEST PUSH1 0x0 PUSH2 0x190C PUSH1 0x1F DUP4 PUSH2 0x12CE JUMP JUMPDEST SWAP2 POP PUSH2 0x1917 DUP3 PUSH2 0x18D6 JUMP JUMPDEST PUSH1 0x20 DUP3 ADD SWAP1 POP SWAP2 SWAP1 POP JUMP JUMPDEST PUSH1 0x0 PUSH1 0x20 DUP3 ADD SWAP1 POP DUP2 DUP2 SUB PUSH1 0x0 DUP4 ADD MSTORE PUSH2 0x193B DUP2 PUSH2 0x18FF JUMP JUMPDEST SWAP1 POP SWAP2 SWAP1 POP JUMP JUMPDEST PUSH32 0x486F6C64657220444944206E6F74207265676973746572656400000000000000 PUSH1 0x0 DUP3 ADD MSTORE POP JUMP JUMPDEST PUSH1 0x0 PUSH2 0x1978 PUSH1 0x19 DUP4 PUSH2 0x12CE JUMP JUMPDEST SWAP2 POP PUSH2 0x1983 DUP3 PUSH2 0x1942 JUMP JUMPDEST PUSH1 0x20 DUP3 ADD SWAP1 POP SWAP2 SWAP1 POP JUMP JUMPDEST PUSH1 0x0 PUSH1 0x20 DUP3 ADD SWAP1 POP DUP2 DUP2 SUB PUSH1 0x0 DUP4 ADD MSTORE PUSH2 0x19A7 DUP2 PUSH2 0x196B JUMP JUMPDEST SWAP1 POP SWAP2 SWAP1 POP JUMP JUMPDEST PUSH32 0x444944206E6F7420666F756E6400000000000000000000000000000000000000 PUSH1 0x0 DUP3 ADD MSTORE POP JUMP JUMPDEST PUSH1 0x0 PUSH2 0x19E4 PUSH1 0xD DUP4 PUSH2 0x12CE JUMP JUMPDEST SWAP2 POP PUSH2 0x19EF DUP3 PUSH2 0x19AE JUMP JUMPDEST PUSH1 0x20 DUP3 ADD SWAP1 POP SWAP2 SWAP1 POP JUMP JUMPDEST PUSH1 0x0 PUSH1 0x20 DUP3 ADD SWAP1 POP DUP2 DUP2 SUB PUSH1 0x0 DUP4 ADD MSTORE PUSH2 0x1A13 DUP2 PUSH2 0x19D7 JUMP JUMPDEST SWAP1 POP SWAP2 SWAP1 POP JUMP JUMPDEST PUSH32 0x6469643A6B65793A000000000000000000000000000000000000000000000000 PUSH1 0x0 DUP3 ADD MSTORE POP JUMP JUMPDEST PUSH1 0x0 PUSH2 0x1A50 PUSH1 0x8 DUP4 PUSH2 0x1764 JUMP JUMPDEST SWAP2 POP PUSH2 0x1A5B DUP3 PUSH2 0x1A1A JUMP JUMPDEST PUSH1 0x8 DUP3 ADD SWAP1 POP SWAP2 SWAP1 POP JUMP JUMPDEST PUSH1 0x0 PUSH2 0x1A71 DUP3 PUSH2 0x12C3 JUMP JUMPDEST PUSH2 0x1A7B DUP2 DUP6 PUSH2 0x1764 JUMP JUMPDEST SWAP4 POP PUSH2 0x1A8B DUP2 DUP6 PUSH1 0x20 DUP7 ADD PUSH2 0x12DF JUMP JUMPDEST DUP1 DUP5 ADD SWAP2 POP POP SWAP3 SWAP2 POP POP JUMP JUMPDEST PUSH1 0x0 PUSH2 0x1AA2 DUP3 PUSH2 0x1A43 JUMP JUMPDEST SWAP2 POP PUSH2 0x1AAE DUP3 DUP5 PUSH2 0x1A66 JUMP JUMPDEST SWAP2 POP DUP2 SWAP1 POP SWAP3 SWAP2 POP POP JUMP JUMPDEST PUSH32 0x4E487B7100000000000000000000000000000000000000000000000000000000 PUSH1 0x0 MSTORE PUSH1 0x11 PUSH1 0x4 MSTORE PUSH1 0x24 PUSH1 0x0 REVERT JUMPDEST PUSH1 0x0 PUSH2 0x1AF3 DUP3 PUSH2 0x14F4 JUMP JUMPDEST SWAP2 POP PUSH2 0x1AFE DUP4 PUSH2 0x14F4 JUMP JUMPDEST SWAP3 POP DUP3 DUP3 MUL PUSH2 0x1B0C DUP2 PUSH2 0x14F4 JUMP JUMPDEST SWAP2 POP DUP3 DUP3 DIV DUP5 EQ DUP4 ISZERO OR PUSH2 0x1B23 JUMPI PUSH2 0x1B22 PUSH2 0x1AB9 JUMP JUMPDEST JUMPDEST POP SWAP3 SWAP2 POP POP JUMP JUMPDEST PUSH1 0x0 PUSH2 0x1B35 DUP3 PUSH2 0x14F4 JUMP JUMPDEST SWAP2 POP PUSH2 0x1B40 DUP4 PUSH2 0x14F4 JUMP JUMPDEST SWAP3 POP DUP3 DUP3 ADD SWAP1 POP DUP1 DUP3 GT ISZERO PUSH2 0x1B58 JUMPI PUSH2 0x1B57 PUSH2 0x1AB9 JUMP JUMPDEST JUMPDEST SWAP3 SWAP2 POP POP JUMP INVALID LOG2 PUSH5 0x6970667358 0x22 SLT KECCAK256 0xFC SWAP9 0xD6 GAS 0xAA JUMP CALLCODE PREVRANDAO STATICCALL CALLCODE 0xB4 0xC6 PUSH18 0x35438331BA956D66C758511F25DAE5986224 0xA8 PUSH5 0x736F6C6343 STOP ADDMOD SHL STOP CALLER "},"methodIdentifiers":{"getDID(address)":"f64e30b0","getSigners()":"94cf795e","issueVC(address,string)":"31d418c6","registerDID(address,bytes)":"0493def6","revokeVC(address,string)":"1bc0d529","verifyVC(address,string)":"7141d0be"}}}}}