{
  "_format": "hh-sol-artifact-1",
  "contractName": "DIDRegistry",
  "sourceName": "contracts/DIDRegistry.sol",
  "abi": [
    {
      "anonymous": false,
      "inputs": [
        {
          "indexed": true,
          "internalType": "address",
          "name": "user",
          "type": "address"
        },
        {
          "indexed": false,
          "internalType": "string",
          "name": "did",
          "type": "string"
        }
      ],
      "name": "DIDRegistered",
      "type": "event"
    },
    {
      "anonymous": false,
      "inputs": [
        {
          "indexed": true,
          "internalType": "address",
          "name": "issuer",
          "type": "address"
        },
        {
          "indexed": true,
          "internalType": "address",
          "name": "holder",
          "type": "address"
        },
        {
          "indexed": false,
          "internalType": "string",
          "name": "credentialHash",
          "type": "string"
        }
      ],
      "name": "VCIssued",
      "type": "event"
    },
    {
      "anonymous": false,
      "inputs": [
        {
          "indexed": true,
          "internalType": "address",
          "name": "holder",
          "type": "address"
        },
        {
          "indexed": false,
          "internalType": "string",
          "name": "credentialHash",
          "type": "string"
        }
      ],
      "name": "VCRevoked",
      "type": "event"
    },
    {
      "inputs": [
        {
          "internalType": "address",
          "name": "user",
          "type": "address"
        }
      ],
      "name": "getDID",
      "outputs": [
        {
          "internalType": "string",
          "name": "",
          "type": "string"
        }
      ],
      "stateMutability": "view",
      "type": "function"
    },
    {
      "inputs": [
        {
          "internalType": "address",
          "name": "holder",
          "type": "address"
        },
        {
          "internalType": "string",
          "name": "credentialHash",
          "type": "string"
        }
      ],
      "name": "issueVC",
      "outputs": [],
      "stateMutability": "nonpayable",
      "type": "function"
    },
    {
      "inputs": [
        {
          "internalType": "address",
          "name": "user",
          "type": "address"
        },
        {
          "internalType": "string",
          "name": "did",
          "type": "string"
        }
      ],
      "name": "registerDID",
      "outputs": [],
      "stateMutability": "nonpayable",
      "type": "function"
    },
    {
      "inputs": [
        {
          "internalType": "address",
          "name": "user",
          "type": "address"
        }
      ],
      "name": "revokeDID",
      "outputs": [],
      "stateMutability": "nonpayable",
      "type": "function"
    },
    {
      "inputs": [
        {
          "internalType": "address",
          "name": "holder",
          "type": "address"
        },
        {
          "internalType": "string",
          "name": "credentialHash",
          "type": "string"
        }
      ],
      "name": "revokeVC",
      "outputs": [],
      "stateMutability": "nonpayable",
      "type": "function"
    },
    {
      "inputs": [
        {
          "internalType": "address",
          "name": "holder",
          "type": "address"
        },
        {
          "internalType": "string",
          "name": "credentialHash",
          "type": "string"
        }
      ],
      "name": "verifyVC",
      "outputs": [
        {
          "internalType": "bool",
          "name": "",
          "type": "bool"
        }
      ],
      "stateMutability": "view",
      "type": "function"
    }
  ],
  "bytecode": "0x6080604052348015600f57600080fd5b506116628061001f6000396000f3fe608060405234801561001057600080fd5b50600436106100625760003560e01c80631bc0d5291461006757806331d418c6146100835780637141d0be1461009f57806374d1bd97146100cf578063e036a279146100eb578063f64e30b014610107575b600080fd5b610081600480360381019061007c9190610d37565b610137565b005b61009d60048036038101906100989190610d37565b610431565b005b6100b960048036038101906100b49190610d37565b610779565b6040516100c69190610db2565b60405180910390f35b6100e960048036038101906100e49190610d37565b6108a6565b005b61010560048036038101906101009190610dcd565b6109d6565b005b610121600480360381019061011c9190610dcd565b610ab0565b60405161012e9190610e8a565b60405180910390f35b60008060003373ffffffffffffffffffffffffffffffffffffffff1673ffffffffffffffffffffffffffffffffffffffff168152602001908152602001600020805461018290610edb565b9050116101c4576040517f08c379a00000000000000000000000000000000000000000000000000000000081526004016101bb90610f58565b60405180910390fd5b6000600160008573ffffffffffffffffffffffffffffffffffffffff1673ffffffffffffffffffffffffffffffffffffffff16815260200190815260200160002090506000805b82805490508110156103e957848460405160200161022a929190610fb7565b6040516020818303038152906040528051906020012083828154811061025357610252610fd0565b5b90600052602060002090600402016002016040516020016102749190611097565b6040516020818303038152906040528051906020012014801561030657503373ffffffffffffffffffffffffffffffffffffffff168382815481106102bc576102bb610fd0565b5b906000526020600020906004020160000160009054906101000a900473ffffffffffffffffffffffffffffffffffffffff1673ffffffffffffffffffffffffffffffffffffffff16145b801561034157508281815481106103205761031f610fd0565b5b906000526020600020906004020160030160009054906101000a900460ff16155b156103dc57600183828154811061035b5761035a610fd0565b5b906000526020600020906004020160030160006101000a81548160ff021916908315150217905550600191508573ffffffffffffffffffffffffffffffffffffffff167f775dc1191cfff60c40587e740e04680b7b556b0ebe5fae7d85ec8beb6daa70ad86866040516103cf9291906110db565b60405180910390a26103e9565b808060010191505061020b565b508061042a576040517f08c379a00000000000000000000000000000000000000000000000000000000081526004016104219061114b565b60405180910390fd5b5050505050565b60008060003373ffffffffffffffffffffffffffffffffffffffff1673ffffffffffffffffffffffffffffffffffffffff168152602001908152602001600020805461047c90610edb565b9050116104be576040517f08c379a00000000000000000000000000000000000000000000000000000000081526004016104b590610f58565b60405180910390fd5b60008060008573ffffffffffffffffffffffffffffffffffffffff1673ffffffffffffffffffffffffffffffffffffffff168152602001908152602001600020805461050990610edb565b90501161054b576040517f08c379a0000000000000000000000000000000000000000000000000000000008152600401610542906111b7565b60405180910390fd5b600160008473ffffffffffffffffffffffffffffffffffffffff1673ffffffffffffffffffffffffffffffffffffffff16815260200190815260200160002060405180608001604052803373ffffffffffffffffffffffffffffffffffffffff1681526020018573ffffffffffffffffffffffffffffffffffffffff16815260200184848080601f016020809104026020016040519081016040528093929190818152602001838380828437600081840152601f19601f82011690508083019250505050505050815260200160001515815250908060018154018082558091505060019003906000526020600020906004020160009091909190915060008201518160000160006101000a81548173ffffffffffffffffffffffffffffffffffffffff021916908373ffffffffffffffffffffffffffffffffffffffff16021790555060208201518160010160006101000a81548173ffffffffffffffffffffffffffffffffffffffff021916908373ffffffffffffffffffffffffffffffffffffffff16021790555060408201518160020190816106ea91906113a7565b5060608201518160030160006101000a81548160ff02191690831515021790555050508273ffffffffffffffffffffffffffffffffffffffff163373ffffffffffffffffffffffffffffffffffffffff167f41bae96aaec1384a87eb4b32aca17aee9e78427155e929c53ab7468f3df95351848460405161076c9291906110db565b60405180910390a3505050565b600080600160008673ffffffffffffffffffffffffffffffffffffffff1673ffffffffffffffffffffffffffffffffffffffff168152602001908152602001600020905060005b81805490508110156108985784846040516020016107df929190610fb7565b6040516020818303038152906040528051906020012082828154811061080857610807610fd0565b5b90600052602060002090600402016002016040516020016108299190611097565b6040516020818303038152906040528051906020012014801561087b575081818154811061085a57610859610fd0565b5b906000526020600020906004020160030160009054906101000a900460ff16155b1561088b5760019250505061089f565b80806001019150506107c0565b5060009150505b9392505050565b60008060008573ffffffffffffffffffffffffffffffffffffffff1673ffffffffffffffffffffffffffffffffffffffff16815260200190815260200160002080546108f190610edb565b905014610933576040517f08c379a000000000000000000000000000000000000000000000000000000000815260040161092a906114c5565b60405180910390fd5b81816000808673ffffffffffffffffffffffffffffffffffffffff1673ffffffffffffffffffffffffffffffffffffffff16815260200190815260200160002091826109809291906114f0565b508273ffffffffffffffffffffffffffffffffffffffff167fbfab59a7af78dfc896c3096604749fcee2db2e850297de42de5e6369f54bd3fb83836040516109c99291906110db565b60405180910390a2505050565b60008060008373ffffffffffffffffffffffffffffffffffffffff1673ffffffffffffffffffffffffffffffffffffffff1681526020019081526020016000208054610a2190610edb565b905011610a63576040517f08c379a0000000000000000000000000000000000000000000000000000000008152600401610a5a9061160c565b60405180910390fd5b6000808273ffffffffffffffffffffffffffffffffffffffff1673ffffffffffffffffffffffffffffffffffffffff1681526020019081526020016000206000610aad9190610c0d565b50565b606060008060008473ffffffffffffffffffffffffffffffffffffffff1673ffffffffffffffffffffffffffffffffffffffff1681526020019081526020016000208054610afd90610edb565b905011610b3f576040517f08c379a0000000000000000000000000000000000000000000000000000000008152600401610b369061160c565b60405180910390fd5b6000808373ffffffffffffffffffffffffffffffffffffffff1673ffffffffffffffffffffffffffffffffffffffff1681526020019081526020016000208054610b8890610edb565b80601f0160208091040260200160405190810160405280929190818152602001828054610bb490610edb565b8015610c015780601f10610bd657610100808354040283529160200191610c01565b820191906000526020600020905b815481529060010190602001808311610be457829003601f168201915b50505050509050919050565b508054610c1990610edb565b6000825580601f10610c2b5750610c4a565b601f016020900490600052602060002090810190610c499190610c4d565b5b50565b5b80821115610c66576000816000905550600101610c4e565b5090565b600080fd5b600080fd5b600073ffffffffffffffffffffffffffffffffffffffff82169050919050565b6000610c9f82610c74565b9050919050565b610caf81610c94565b8114610cba57600080fd5b50565b600081359050610ccc81610ca6565b92915050565b600080fd5b600080fd5b600080fd5b60008083601f840112610cf757610cf6610cd2565b5b8235905067ffffffffffffffff811115610d1457610d13610cd7565b5b602083019150836001820283011115610d3057610d2f610cdc565b5b9250929050565b600080600060408486031215610d5057610d4f610c6a565b5b6000610d5e86828701610cbd565b935050602084013567ffffffffffffffff811115610d7f57610d7e610c6f565b5b610d8b86828701610ce1565b92509250509250925092565b60008115159050919050565b610dac81610d97565b82525050565b6000602082019050610dc76000830184610da3565b92915050565b600060208284031215610de357610de2610c6a565b5b6000610df184828501610cbd565b91505092915050565b600081519050919050565b600082825260208201905092915050565b60005b83811015610e34578082015181840152602081019050610e19565b60008484015250505050565b6000601f19601f8301169050919050565b6000610e5c82610dfa565b610e668185610e05565b9350610e76818560208601610e16565b610e7f81610e40565b840191505092915050565b60006020820190508181036000830152610ea48184610e51565b905092915050565b7f4e487b7100000000000000000000000000000000000000000000000000000000600052602260045260246000fd5b60006002820490506001821680610ef357607f821691505b602082108103610f0657610f05610eac565b5b50919050565b7f49737375657220444944206e6f74207265676973746572656400000000000000600082015250565b6000610f42601983610e05565b9150610f4d82610f0c565b602082019050919050565b60006020820190508181036000830152610f7181610f35565b9050919050565b600081905092915050565b82818337600083830152505050565b6000610f9e8385610f78565b9350610fab838584610f83565b82840190509392505050565b6000610fc4828486610f92565b91508190509392505050565b7f4e487b7100000000000000000000000000000000000000000000000000000000600052603260045260246000fd5b60008190508160005260206000209050919050565b6000815461102181610edb565b61102b8186610f78565b94506001821660008114611046576001811461105b5761108e565b60ff198316865281151582028601935061108e565b61106485610fff565b60005b8381101561108657815481890152600182019150602081019050611067565b838801955050505b50505092915050565b60006110a38284611014565b915081905092915050565b60006110ba8385610e05565b93506110c7838584610f83565b6110d083610e40565b840190509392505050565b600060208201905081810360008301526110f68184866110ae565b90509392505050565b7f5643206e6f7420666f756e64206f7220616c7265616479207265766f6b656400600082015250565b6000611135601f83610e05565b9150611140826110ff565b602082019050919050565b6000602082019050818103600083015261116481611128565b9050919050565b7f486f6c64657220444944206e6f74207265676973746572656400000000000000600082015250565b60006111a1601983610e05565b91506111ac8261116b565b602082019050919050565b600060208201905081810360008301526111d081611194565b9050919050565b7f4e487b7100000000000000000000000000000000000000000000000000000000600052604160045260246000fd5b60006020601f8301049050919050565b600082821b905092915050565b6000600883026112537fffffffffffffffffffffffffffffffffffffffffffffffffffffffffffffffff82611216565b61125d8683611216565b95508019841693508086168417925050509392505050565b6000819050919050565b6000819050919050565b60006112a461129f61129a84611275565b61127f565b611275565b9050919050565b6000819050919050565b6112be83611289565b6112d26112ca826112ab565b848454611223565b825550505050565b600090565b6112e76112da565b6112f28184846112b5565b505050565b5b818110156113165761130b6000826112df565b6001810190506112f8565b5050565b601f82111561135b5761132c81610fff565b61133584611206565b81016020851015611344578190505b61135861135085611206565b8301826112f7565b50505b505050565b600082821c905092915050565b600061137e60001984600802611360565b1980831691505092915050565b6000611397838361136d565b9150826002028217905092915050565b6113b082610dfa565b67ffffffffffffffff8111156113c9576113c86111d7565b5b6113d38254610edb565b6113de82828561131a565b600060209050601f83116001811461141157600084156113ff578287015190505b611409858261138b565b865550611471565b601f19841661141f86610fff565b60005b8281101561144757848901518255600182019150602085019450602081019050611422565b868310156114645784890151611460601f89168261136d565b8355505b6001600288020188555050505b505050505050565b7f44494420616c7265616479207265676973746572656400000000000000000000600082015250565b60006114af601683610e05565b91506114ba82611479565b602082019050919050565b600060208201905081810360008301526114de816114a2565b9050919050565b600082905092915050565b6114fa83836114e5565b67ffffffffffffffff811115611513576115126111d7565b5b61151d8254610edb565b61152882828561131a565b6000601f8311600181146115575760008415611545578287013590505b61154f858261138b565b8655506115b7565b601f19841661156586610fff565b60005b8281101561158d57848901358255600182019150602085019450602081019050611568565b868310156115aa57848901356115a6601f89168261136d565b8355505b6001600288020188555050505b50505050505050565b7f444944206e6f7420666f756e6400000000000000000000000000000000000000600082015250565b60006115f6600d83610e05565b9150611601826115c0565b602082019050919050565b60006020820190508181036000830152611625816115e9565b905091905056fea2646970667358221220d3578c00729a73402fb749234ac8cb058173027e8683f0f68432e3e02720863764736f6c634300081b0033",
  "linkReferences": {},
  "deployedLinkReferences": {}
}